:020000040000FA
:08000000803102288731F62F40
:100A58000800080008000800080016302100970068
:100A680008008531612585310800863110268531D9
:100A780008008531BC258531080071082000B100C7
:100A88007008B000080071082000B5007008B400B4
:100A9800080071082000B3007008B2000800383060
:100AA80021009900980122009601080085316125EE
:100AB80085312000B601B60A0800803021009E006A
:100AC8009F019B019C0101309D0008000030853189
:100AD800892585317108F5007008F4000230F53673
:100AE800F40C890B732D74080800863110268531A3
:100AF800853153258531853131258531853161250C
:100B080085318531BC2585310800F3007308F20072
:100B1800F20DF20D21001D087206833972069D0040
:100B28001D1421009D149D189A2D9B2D972D1C088E
:100B3800F1001B08F0000800A22DBB2D7408F70077
:100B4800F8017808003A0319AA2DBB2D7708003A56
:100B58000319A12D013A0319A12D033A0319A12D57
:100B6800013A0319A12D063A0319BB2DBB2D080024
:100B7800083023009F0080309D0024309E000C30F8
:100B88009B009C010030F0000030F10085314725C2
:100B980085310030F0000030F10085314D25853178
:100BA8000030F0000030F100853141258531FD012C
:100BB800080001308531892585317108F5007008F4
:100BC800F400200036080319EA2DEB2DFD2D003026
:100BD8007502853003197402031CF32DF42DF82DCA
:100BE800F60122008D150E2EF601F60A22008D114F
:100BF8000E2E003075027030031974020318052E8A
:100C0800062E0B2EF601F60A22008D110E2EF60185
:100C180022008D1576080800220090018F018C01B2
:100C28008D018E010F3021009000FF308C00E730DD
:100C38008D00BF308E00FF308F00FF3023008F0003
:100C4800FC308E0038308D00073090003F308C002B
:100C580024008F0190018D018C018E0121009517D0
:100C6800250090018C018D018E018F01FF30260037
:100C78008C00FF308D00FF308E00FF308F00073072
:100C88009000FF3027008C00FF308D00FF308E0071
:100C9800FF308F000F30900014303D00A600080090
:100CA800730872047104700403195B2E5C2E952E70
:100CB800F901F90A6A2E0130F035F10DF20DF30D44
:100CC800890B602E0130F8007808F907F31F6D2EA4
:100CD8006E2E5F2E73087702031D7C2E7208760233
:100CE800031D7C2E71087502031D7C2E700874028A
:100CF800031C7F2E802E882E7008F4027108F53BA5
:100D08007208F63B7308F73B0130F336F20CF10C2E
:100D1800F00C890B892E0130F902031D942E952EB3
:100D28006E2E7708F3007608F2007508F100740853
:100D3800F00008002000A0010D080139F000F101C1
:100D4800F2017008A1007108A2007208A3000D0C3E
:100D58000139F000F101F2017008A4007108A50042
:100D68007208A6000D0C890C0139F000F101F2019E
:100D78007008A7007108A8007208A9002708F000E9
:100D88002808F1002908F20021082407F3002208A6
:100D9800253DF4002308263DF5007308F007740884
:100DA800F13D7508F23D7208710470040319DD2ED7
:100DB800DE2EE02EA001A00A230822042104031934
:100DC800E62EE72EEF2E0130F0007008BB07013049
:100DD800F0007008BB052608250424040319F52E25
:100DE800F62EFE2E0130F0007008BA070330F0002E
:100DF8007008BA052908280427040319042F052FA9
:100E08000D2F0130F0007008B9070130F0007008AC
:100E1800B9052008080085317925873185312E25C7
:100E280087313A30FA007A08F0003930FB007B0845
:100E3800F1003B3085312D258731853135258731C6
:100E480085313925873185315A25873185313025D6
:100E5800873185313D25873100302000AF000030D3
:100E6800AE000030AD000030AC000030F3000030C0
:100E7800F2002730F1001030F00020002F08F700B2
:100E88002E08F6002D08F5002C08F40086315426AB
:100E980087317308720471047004031D542F552F91
:100EA800622F20003A08FA007A08F0003908FB009F
:100EB8007B08F1003B0885312C2587310030F30091
:100EC8000030F2002730F1001030F00020002F0829
:100ED800F7002E08F6002D08F5002C08F4008631DE
:100EE800542687317308720471047004031D7D2F22
:100EF8007E2F852F8531DD258731FA007A0820007D
:100F0800B6002000360803198A2F8B2FDC2F863174
:100F18009E268731FA007A082000AA002A080319B9
:100F2800962F972FA32F3A08FA007A08F00039086D
:100F3800FB007B08F1003B0885312F258731200015
:100F48003B080319A82FA92FDC2F39080319AD2F47
:100F5800AE2FB82F85316A258731FA007A0820002C
:100F6800AB0022000D16BA2F22000D1220002F0808
:100F7800F3002E08F2002D08F1002C08F0003A08C2
:100F8800FA007A08F4003908FB007B08F5002B0802
:100F9800FC007C08F6008531A0258731013020004F
:100FA800AC070030AD3D0030AE3D0030AF3D392FCD
:100FB8002F08F3002E08F2002D08F1002C08F0008D
:100FC8000530FA007A08F4003908FB007B08F500C0
:100FD8002B08FC007C08F6008531A0258731392FC5
:100FE80080310228FD012000B701B801B901BA011A
:080FF800BB01200087310F2F1F
:020000040001F9
:04000E00E43FFF3E8E
:00000001FF
