:020000040000FA
:10000000803102288731002F08002100E600D2301D
:1000100086000030870014302000EC0000301E0005
:10002000EC0B0F281D30E6009030E7002100660839
:100030002000EC00ED016C08E8006D08E900D2300A
:100040008931EB218031D230F1000030F20088316B
:10005000F120803144302000E6009030E7006A084B
:10006000EC00ED016C08E8006D08E900D230893140
:10007000EB218031D230F1000030F2008831F120E4
:10008000803131302000E6009030E7006B08EC0052
:10009000ED016C08E8006D08E900D2308931EB21F0
:1000A0008031D230F1000030F2008831F12080310F
:1000B0000800F2012030860000308700473FF00042
:1000C000F01F6328642885282000A009A109A2093F
:1000D000A309A409A509A609A709A00A031D832845
:1000E000A10A031D8328A20A031D8328A30A031D56
:1000F0008328A40A031D8328A50A031D8328A60AB2
:10010000031D8328A70AF201F20A28308600003076
:100110008700473FF000F01F8E288F28B22820006C
:10012000A809A909AA09AB09AC09AD09AE09AF092B
:10013000A80A031DAE28A90A031DAE28AA0A031D9A
:10014000AE28AB0A031DAE28AC0A031DAE28AD0ACB
:10015000031DAE28AE0A031DAE28AF0A0130F00021
:100160007008F20673308600003087000830F00017
:1001700000301E00F00BB9282000200821042204C2
:10018000230424042504260427040319C828C928A5
:100190002529F101F10AD828A035A10DA20DA30D42
:1001A000A40DA50DA60DA70D0130F0007008F107F4
:1001B000A71FDB28DC28CC28F335F40DF50DF60D50
:1001C000F70DF80DF90DFA0D27082F02031D02296E
:1001D00026082E02031D022925082D02031D0229CF
:1001E00024082C02031D022923082B02031D0229C7
:1001F00022082A02031D022921082902031D0229BF
:1002000020082802031C0529062917292008A8020E
:100210002108A93B2208AA3B2308AB3B2408AC3B9E
:100220002508AD3B2608AE3B2708AF3B7314A73625
:10023000A60CA50CA40CA30CA20CA10CA00C0130C4
:10024000F102031D24292529DC2872080319292914
:100250002A294829F309F409F509F609F709F809E3
:10026000F909FA09F30A031D4829F40A031D48296C
:10027000F50A031D4829F60A031D4829F70A031D3C
:100280004829F80A031D4829F90A031D4829FA0AD2
:1002900073082000A0007408A1007508A200760869
:1002A000A3007708A4007808A5007908A6007A08BA
:1002B000A700080089317021813100308A31B322D2
:1002C0008131883135208131C7302100E70067084E
:1002D000F000C630E8006808F100C83088313420EA
:1002E000813188313A20813188313E208131883115
:1002F0005420813188316D208131883182208131D3
:1003000000302100EF000030EE000030ED00003042
:10031000EC000030B3000030B2000030B10000301B
:10032000B0000030F3000030F2000030F100643023
:10033000F0006F08F7006E08F6006D08F5006C0815
:10034000F4008A31692281317308720471047004E7
:10035000031DAB29AC29BD2921004708E700670828
:100360002000EA0021004608E80068082000EB00B1
:10037000210048088031052081310030F300003031
:10038000F2002730F1001030F00021006F08F70074
:100390006E08F6006D08F5006C08F4008A316922D9
:1003A00081317308720471047004031DD829D9299E
:1003B000E0298731C42781312100E7006708C400A4
:1003C000210044080319E529E629602A6F08330251
:1003D000031DF4296E083202031DF4296D08310251
:1003E000031DF4296C0830020318F729F829FF29A6
:1003F0008D31B02581312100E7006708EA006A08E5
:100400000319032A042A1E2AEA014708E70067089D
:10041000F0004608E8006808F10048088031042030
:100420008131643021006C07B00000306D3DB100B7
:1004300000306E3DB20000306F3DB3004808031934
:10044000222A232A602A46080319272A282A3A2A18
:100450008831A52081312100E7006708EB0080305A
:100460006B02031C342A352A382A22000D173A2A37
:1004700022000D1321006F082000AF0021006E083C
:100480002000AE0021006D082000AD0021006C08A6
:100490002000AC0021004708E70067082000B000FA
:1004A00021004608E80068082000B10021006B0820
:1004B000E90069082000B2008D313C258131842A91
:1004C0006F082000AF0021006E082000AE00210060
:1004D0006D082000AD0021006C082000AC00053044
:1004E0002100E70067082000B00021004608E8006E
:1004F00068082000B10021006B08E90069082000AD
:10050000B2008D313C25813101302100EC070030F3
:10051000ED3D0030EE3D0030EF3D91298031022865
:100520002000BD003008C4003108C5003208C600F4
:100530003308C7003408C8003508C9003608CA00A7
:100540003708CB004430860000308700473FB800B2
:10055000B81BAB2AAD2A0130AE2A00302000B9000A
:10056000BA013908C2003A08C3004208430403191B
:10057000BA2ABB2AD92AC409C509C609C709C809A4
:10058000C909CA09CB09C40A031DD92AC50A031D12
:10059000D92AC60A031DD92AC70A031DD92AC80A9F
:1005A000031DD92AC90A031DD92ACA0A031DD92A3B
:1005B000CB0A2100B91BDD2ADE2AE22AFD30BA056A
:1005C000FF30BB053908803A2000B800803038027F
:1005D000031DED2A0130210038020318F02AF12A08
:1005E000F72A01302000BE000030BF00FF2A2100A2
:1005F00039082000BF00210038082000BE0021007B
:1006000037082000C100210036082000C000420841
:100610004304031D0C2B0D2B122B21003A1D112B13
:10062000122B172BFF302000C007FF30C13D1F30B9
:100630002000CC000030CD002200D301882BFF30F9
:100640002000CC07FF30CD3D0A30A000A101A2015F
:10065000A301A401A501A601A7014408A80045081B
:10066000A9004608AA004708AB004808AC004908A2
:10067000AD004A08AE004B08AF008F31162782311B
:1006800020002108F4002008F30089312121823163
:100690007308303E2000B8004C08343E860001301C
:1006A000870038088100FF30BE07FF30BF3DFF30B4
:1006B000C007FF30C13D0A30A000A101A201A30183
:1006C000A401A501A601A7014408A8004508A900A6
:1006D0004608AA004708AB004808AC004908AD002E
:1006E0004A08AE004B08AF0080315920823120000B
:1006F0002008C4002108C5002208C6002308C7003E
:100700002408C8002508C9002608CA002708CB000D
:1007100020004D08803AB80080303802031D922B2B
:1007200001304C02031C952B962BC32B2000440850
:10073000450446044704480449044A044B04031D85
:10074000A22BA32B1F2B3F08803AB8008030380221
:10075000031DAC2B01303E020318AF2BB02B1F2B17
:1007600020004108803AB80080303802031DBA2BBF
:1007700001304002031CBD2BBE2BC32B2100BA1835
:10078000C22BC32B1F2B200042084304031DC92B7F
:10079000CA2BCF2B21003A1DCE2BCF2BEC2BFF30B9
:1007A0002000CC07FF30CD3D42084304031DD92B68
:1007B000DA2BDF2B2B30BB000030BC00E32B2D30BD
:1007C000BB000030BC003B08B8004C08343E86003B
:1007D000013087003808810020004C08343EB80002
:1007E0003808A4004108A6004008A5003D088B3148
:1007F000A723823120002508B1002408B00008009A
:10080000FC3400340334F93400340634F634003454
:100810000934F33400340C34F03400340F34ED3444
:1008200000341234EA3400341534E7340034183418
:10083000E43400341B34E13400341E34DE3400343C
:100840002134DB3400342434D83400342734D53414
:1008500000342A34D23400342D34CF3400343034D0
:10086000CC3400343334C93400343634C634003424
:100870003934C33400343C34C03400343F34BD34E4
:1008800000344234BA3400344534B7340034483488
:10089000B43400344B34B13400344E34AE3400340C
:1008A0005134AB3400345434A83400345734A534B4
:1008B00000345A34A23400345D349F340034603440
:1008C0009C340034633499340034663496340034F4
:1008D0006934933400346C34903400346F348D3484
:1008E000003472348A3400347534873400347834F8
:1008F000843400347B34813400347E347E340034DC
:1009000081347B3400348434783400348734753453
:1009100000348A34723400348D346F3400349034AF
:100920006C340034933469340034963466340034C3
:100930009934633400349C34603400349F345D3423
:100940000034A2345A340034A53457340034A83467
:1009500054340034AB3451340034AE344E340034AB
:10096000B1344B340034B43448340034B7344534F3
:100970000034BA3442340034BD343F340034C0341F
:100980003C340034C33439340034C6343634003493
:10099000C93433340034CC3430340034CF342D34C3
:1009A0000034D2342A340034D53427340034D834D7
:1009B00024340034DB3421340034DE341E3400347B
:1009C000E1341B340034E43418340034E734153493
:1009D0000034EA3412340034ED340F340034F0348F
:1009E0000C340034F33409340034F6340634003463
:1009F000F93403340034FC3400340034FF34003460
:100A00000334FC3400340634F93400340934F63449
:100A100000340C34F33400340F34F0340034123426
:100A2000ED3400341534EA3400341834E73400343B
:100A30001B34E43400341E34E13400342134DE3419
:100A400000342434DB3400342734D83400342A34DE
:100A5000D53400342D34D23400343034CF34003423
:100A60003334CC3400343634C93400343934C634E9
:100A700000343C34C33400343F34C0340034423496
:100A8000BD3400344534BA3400344834B73400340B
:100A90004B34B43400344E34B13400345134AE34B9
:100AA00000345434AB3400345734A83400345A344E
:100AB000A53400345D34A234003460349F340034F3
:100AC00063349C3400346634993400346934963489
:100AD00000346C34933400346F3490340034723406
:100AE0008D34003475348A340034783487340034DB
:100AF0007B34843400347E348134003481347E3459
:100B0000003484347B3400348734783400348A34BD
:100B1000753400348D347234003490346F340034C2
:100B200093346C3400349634693400349934663428
:100B300000349C34633400349F3460340034A23475
:100B40005D340034A5345A340034A83457340034AA
:100B5000AB3454340034AE3451340034B1344E34F8
:100B60000034B4344B340034B73448340034BA342D
:100B700045340034BD3442340034C0343F34003492
:100B8000C3343C340034C63439340034C9343634C8
:100B90000034CC3433340034CF3430340034D234E5
:100BA0002D340034D5342A340034D834273400347A
:100BB000DB3424340034DE3421340034E1341E3498
:100BC0000034E4341B340034E73418340034EA349D
:100BD00015340034ED3412340034F0340F34003462
:100BE000F3340C340034F63409340034F934063468
:100BF0000034FC3403340034FF3400340334FC3458
:100C000000340634F93400340934F63400340C343A
:100C1000F33400340F34F03400341234ED34003443
:100C20001534EA3400341834E73400341B34E43427
:100C300000341E34E13400342134DE3400342434F2
:100C4000DB3400342734D83400342A34D53400342B
:100C50002D34D23400343034CF3400343334CC34F7
:100C600000343634C93400343934C63400343C34AA
:100C7000C33400343F34C03400344234BD34003413
:100C80004534BA3400344834B73400344B34B434C7
:100C900000344E34B13400345134AE340034543462
:100CA000AB3400345734A83400345A34A5340034FB
:100CB0005D34A234003460349F34003463349C3497
:100CC00000346634993400346934963400346C341A
:100CD000933400346F349034003472348D340034E3
:100CE00075348A3400347834873400347B34843467
:100CF00000347E348134003481347E3400348434D2
:100D00007B3400348734783400348A3475340034CA
:100D10008D347234003490346F34003493346C3436
:100D200000349634693400349934663400349C3489
:100D3000633400349F3460340034A2345D340034B2
:100D4000A5345A340034A83457340034AB34543406
:100D50000034AE3451340034B1344E340034B43441
:100D60004B340034B73448340034BA34453400349A
:100D7000BD3442340034C0343F340034C3343C34D6
:100D80000034C63439340034C93436340034CC34F9
:100D900033340034CF3430340034D2342D34003482
:100DA000D5342A340034D83427340034DB342434A6
:100DB0000034DE3421340034E1341E340034E434B1
:100DC0001B340034E73418340034EA34153400346A
:100DD000ED3412340034F0340F340034F3340C3476
:100DE0000034F63409340034F93406340034FC3469
:100DF00003340034FF340034003400340034003451
:100E00003C30840023308500B430FE000030FF0009
:100E10008831992087312000EE01EF01A030840055
:100E2000003085002930FE000030FF008831992015
:100E3000873120308400013085003430FE000030DE
:100E4000FF00883199208731200081315A29200004
:100E5000AA00FF30F6000030F7002A08A600A7011C
:100E60002608F0002708F1000F30F2000030F300F0
:100E70008931A92187317108F9007008F8008C3197
:100E80000024873176082000A8000230A835FF3EF4
:100E9000031D462F2835083EA9002908AB00240869
:100EA0006E07EE0025086F3DEF006F08803AA60040
:100EB00081302602031D5E2F00306E02031C612F5D
:100EC000622F652F2000EE01EF012000EF1F692F38
:100ED0006A2F6E2FFF30EE000030EF006F08F10038
:100EE0006E08F0000330F2000030F3008931A921D0
:100EF00087317108850070088400013084078430D0
:100F0000853D00082000A6002608F6006F08F100C5
:100F10006E08F0000330F2000030F3008931A9219F
:100F2000873171088500700884000230840784309E
:100F3000853D00082000A7002708F700F8012B08CE
:100F4000A8002808F9006F08F1006E08F0000330CF
:100F5000F2000030F3008931A92187317108850042
:100F600070088400003084078430853D0008893192
:100F70008C21873134302000A600F130890BBE2F40
:100F8000A60BBE2F00320800013089315521873170
:100F90007108F5007008F400210044080319D12FEE
:100FA000D22FE42F00307502853003197402031C20
:100FB000DA2FDB2FDF2FF60122008D15F52FF6013A
:100FC000F60A22008D11F52F0030750270300319DA
:100FD00074020318EC2FED2FF22FF601F60A22000F
:100FE0008D11F52FF60122008D157608080080304E
:100FF00021009E009F019B019C0101309D00080083
:1010660008000800080016302100970008008731A4
:10107600F727883108008B31512388310800710821
:101086002100BD007008BC00080071082100C100E5
:101096007008C000080071082100BF007008BE007B
:1010A60008008731F72788312100C401C40A0800E7
:1010B600043020009B009A01911004309C00080027
:1010C600F0002000111E6828692864287008230093
:1010D6009A0008002000EE01EF01F601F70100304A
:1010E600893108218831080080302C009C000230AC
:1010F6009B0040309A003F3025009E05080089314C
:10110600C82188310030F1009030F2008831F1209A
:10111600883108007030210099009801220096015C
:1011260021001A1F97289828932808006400800138
:1011360001310130FE020030FF3B7F087E04031DB3
:101146009A28003400308931552188317108F5001C
:101156007008F4000230F536F40C890BAE287408DA
:10116600080013303C00A0001430A10010303D00F0
:10117600A300240094012330950001309200210041
:101186008E1124009512080001303E00A5000F3094
:10119600A6001030A7001130A800A9010530AA004A
:1011A6001030AB000830AC002030AD008030A40019
:1011B6000800F200700824009100141CE328E428BB
:1011C600E02872089100141CE928EA28E62871082C
:1011D6009100141CEF28F028EC280800FE2871085E
:1011E6008400720885000008883163208831013048
:1011F600F1070030F23D7108840072088500120084
:10120600031D06290729F2280800FA00FB017608C3
:10121600F8007808F0007708F9007908F1007A08F4
:101226008831DC2089310130F8007808FB078030EE
:101236007B02031C1F2920290A2908007408803A0A
:10124600F50080307502031D2A2901307302031848
:101256002D292E293A297309F5007409F600F50A95
:101266000319F60A7508F3007608F4003A2908000F
:10127600F4007408F2007208F30045290130F20008
:101286007208F40774088600013087000108031D00
:101296004D294E29412973087402F000F101F01B13
:1012A600F1030800F3007308F200F20DF20D2100BD
:1012B6001D087206833972069D001D140D30890BB8
:1012C6006229000021009D149D186A296B2967294F
:1012D6001C08F1001B08F00008008831B420893191
:1012E6008B315123893188318D20893188313620DF
:1012F60089318731F72789318831C720893188318B
:101306007720893188315B2089318931C82189313B
:101316000800FC007808FA007A08FD00A229760881
:10132600FA007A08F0007708FB007B08F1007C08D9
:101336008831DC2089310130FA007A08FD07790806
:101346007D02031CA729A82992290800F401F501AA
:10135600701CAE29AF29B3297208F4077308F53D4E
:101366000130F235F30D890BB4290130F136F00C5A
:10137600890BB92970087104031DC229C329AB2939
:101386007508F1007408F0000800083023009F007B
:1013960090309D0024309E0040309B0003309C001E
:1013A6000030F0000030F1008831482089310030EB
:1013B600F0000030F10088314E2089310030F00015
:1013C6000030F1008831422089312100C501080032
:1013D6002100CC006830FD007D08CB004C08FD00E4
:1013E6007D08CD00CE01CF01D001D10120006708D4
:1013F600DF006608DE00CB30FD007D08E000CD3062
:101406008A313822893121004E084C07FD007D08BB
:1014160086008701810108002000A300A101A20126
:10142600272A2008F900FA017908F0007A08F10065
:101436007808FB007B08F2008B3102238A310130E9
:101446002000A1070030A23D21082307F9007908F2
:101456008600013087000108FA007A08A0002008FB
:10146600031D362A372A142A08002000E3005F08E5
:10147600E5005E08E4002100B401B501562A643097
:10148600E1006108CE006008E2006208CF00630850
:101496008E313B268A3120004E082100B4072000F9
:1014A6004F082100B53D20006408840065088500CA
:1014B6001200031D5F2A602A422A210035082000F7
:1014C600DF00210034082000DE00080073087204E3
:1014D600710470040319702A712AAA2AF901F90AFB
:1014E6007F2A0130F035F10DF20DF30D890B752AC7
:1014F6000130F8007808F907F31F822A832A742A34
:1015060073087702031D912A72087602031D912A39
:1015160071087502031D912A70087402031C942A2F
:10152600952A9D2A7008F4027108F53B7208F63B6D
:101536007308F73B0130F336F20CF10CF00C890B13
:101546009E2A0130F902031DA92AAA2A832A7708AE
:10155600F3007608F2007508F1007408F000080040
:10156600F3002400951AB82AB92A012B7308F00053
:10157600F101F035F10DF035F10D573070078400AB
:101586009030713D8500000894007308F000F10169
:10159600F035F10DF035F10D5630700784009030BE
:1015A600713D85000008950096017308F000F10171
:1015B600F035F10DF035F10D58307007840090309C
:1015C600713D8500000892007308F000F101F035C6
:1015D600F10DF035F10D5930700784009030713DF2
:1015E60085000008F200F20DF20DF20D21000E0842
:1015F6007206F73972068E002400951608007208E6
:101606000319062B072B0C2B7208031D0B2B0C2B17
:10161600112B7008883133208B31502B7208033E12
:10162600860087011600010403191A2B1B2B382B81
:101636007208033E86008701403FF300413FF400F5
:10164600720A86008701403FF500413FF6007608A2
:10165600803AF7007408803A7702031D342B73082A
:1016660075020318372B382B502B7008F3007208BD
:1016760086008701720A8400850100080107F400CC
:1016860074088600870173088100720A8600870144
:101696000130810741310318810A080022009001B8
:1016A6008F018C018D018E010F3021009000FF30DB
:1016B6008C0087308D00B6308E00FE308F00FE30F5
:1016C60023008F00E4308E0020308D00073090001C
:1016D6003F308C0024008F0190018D018C018E011A
:1016E60021009517250090018C018D018E018F0137
:1016F600FF3026008C00FF308D00FF308E00FF305B
:101706008F0007309000FF3027008C00FF308D00DF
:10171600FF308E00FF308F000F30900014303D00F8
:10172600A00011303C00A4001430A10010303D0090
:10173600A3003C00A80106303D00A8001430A60016
:1017460013303C00A00008002000AB0021003A1C2A
:10175600AD2BAE2BB72B20002B08FC007C08F80025
:1017660024088A310F228B312000A61BBB2BBC2BF1
:10177600C12B2608AA002508A900C32BA901AA0186
:10178600A701A801D72B2030F0000030F10020007F
:101796002B08FC007C08F2008B3102238B310130D0
:1017A6002000A7070030A83D2808803AFC002A0838
:1017B600803A7C02031DE12B29082702031CE42B37
:1017C600E52BC62B21003A18E92BEA2BF32B200038
:1017D6002B08FC007C08F80024088A310F228B3184
:1017E6002000240889313B218B312000290870070D
:1017F600A4002A08713DA50008002000A101F71FDA
:10180600052C062C0D2CF609F709F60A0319F70A1A
:10181600A101A10AF91F102C112C1A2CF809F9099B
:10182600F80A0319F90A0130FA007A08A106A2019A
:10183600A301760877040319212C222C512CA00130
:10184600A00A2E2C0130F635F70D890B262C013017
:10185600FA007A08A007F71F312C322C252C01300C
:10186600A235A30D890B332C77087902031D3D2C75
:1018760076087802031C402C412C462C7608F80288
:101886007708F93B22140130F736F60C890B472C02
:101896000130A002031D502C512C322C21080319B3
:1018A600552C562C5B2CA209A309A20A0319A30ADC
:1018B6002308F7002208F6000800FC00F601F701ED
:1018C6000030893108218C3134302000A000F130FD
:1018D600890B6B2CA00B6B2C00327C082000A0001F
:1018E600A1012008F0002108F1000330F2000030C9
:1018F600F3008931A9218C317108850070088400B4
:10190600013084078430853D00082000A2002208AB
:10191600F6007C08A300A4012308F0002408F100C7
:101926000330F2000030F3008931A9218C317108AF
:10193600850070088400023084078430853D0008E5
:101946002000A5002508F7007C08A600A7012608A8
:10195600F0002708F1000330F2000030F30089316F
:10196600A9218C3171088500700884000030840735
:101976008430853D0008893108218C3134302000BF
:10198600A000F130890BC52CA00BC52C0032080035
:10199600FC00F601F7010030893108218C31023054
:1019A6002000A1003830A000AD30890BD82CA00B48
:1019B600D82CA10BD82C7C082000A000A10120085F
:1019C600F0002108F1000330F2000030F300893105
:1019D600A9218C31710885007008840001308407C4
:1019E6008430853D00082000A2002208F6007C080D
:1019F600A300A4012308F0002408F1000330F2003C
:101A06000030F3008931A9218C31710885007008F6
:101A16008400023084078430853D00082000A5003C
:101A26002508F7007C08A600A7012608F00027086D
:101A3600F1000330F2000030F3008931A9218C3126
:101A46007108850070088400003084078430853D65
:101A56000008893108218C3102302000A10038307D
:101A6600A000AD30890B352DA00B352DA10B352DE2
:101A76000800952D32088C31CB248D31AF2D3108DD
:101A8600031D462D472D5D2DFF30B3003308F600AC
:101A9600B430B4003408F7006430893108218D3140
:101AA60034302000B300F130890B572DB30B572D7E
:101AB6000032AF2D32088C31CB248D31AF2D310859
:101AC600031D662D672D712DFF30B3003308F60018
:101AD600F701FF30893108218D31532DF630A400EE
:101AE600FF30A5003208873127278D31AF2D310809
:101AF600031D7E2D7F2D892DF601FF30B30033089F
:101B0600F700FF30893108218D31532D32088C3191
:101B160060248D31AF2DF601F7010030893108219F
:101B26008D31532D20003008B300B4013408003A3B
:101B360003199E2DAF2D3308003A03193D2D013AA6
:101B46000319422D033A0319622D013A03197A2D1E
:101B5600063A03198E2DAF2D08002000A0010D08AE
:101B66000139F000F101F2017008A1007108A2002C
:101B76007208A3000D0C0139F000F101F2017008A2
:101B8600A4007108A5007208A6000D0C890C013985
:101B9600F000F101F2017008A7007108A8007208B0
:101BA600A9002708F0002808F1002908F2002108FA
:101BB6002407F3002208253DF4002308263DF500FE
:101BC6007308F0077408F13D7508F23D7208710458
:101BD60070040319EF2DF02DF22DA001A00A2308A1
:101BE600220421040319F82DF92D0C2E0130F000E2
:101BF60070082100C8070130F0007008C8054808C1
:101C06000319062E072E0A2E22008D160C2E2200F0
:101C16008D1220002608250424040319132E142EE1
:101C26001D2E0130F00070082100C7070330F000B8
:101C36007008C70520002908280427040319242E44
:101C4600252E382E0130F00070082100C60701301D
:101C5600F0007008C60546080319322E332E362EBC
:101C660022000D16382E22000D1220002008080032
:101C76002000DD004E0886008701403FD000413F2E
:101C8600D10050088400510885001200253A031D32
:101C96004D2E4E2EF22E4E0886008701013081070A
:101CA60041310318810A2100B601B701BA01BB010F
:101CB600FF30B800FF30B90020004E0886008701CB
:101CC600403FD000413FD1005008840051088500B4
:101CD6001200643A0319702E712E822E4E08860069
:101CE6008701403FD000413FD10050088400510891
:101CF60085001200693A031D812E822EBD2E4E08E4
:101D0600860087010130810741310318810A4F0897
:101D16008600870101088400850102308107003FA3
:101D2600D000013FD1005008D5005108D600890DDA
:101D3600893B8909D700D800D900DA00DB00DC002E
:101D46005508B0005608B1005708B2005808B3004D
:101D56005908B4005A08B5005B08B6005C08B7001D
:101D66005D08823190228E3120003108CF00300884
:101D7600CE00152F4E0886008701403FD000413F18
:101D8600D10050088400510885001200253A031D31
:101D9600CD2ECE2EE72E4E08860087010130810714
:101DA60041310318810A2530F0000030F1005D084A
:101DB600D0005008F2008B3102238E310130200012
:101DC600CE000030CF00152F4E0886008701013067
:101DD600810741310318810ACE01CF01152F4E0824
:101DE60086008701403FD000413FD1005008840063
:101DF600510885000008D200D3015208F0005308AC
:101E0600F1005D08D4005408F2008B3102238E31B4
:101E160020004E08860087010130810741310318F2
:101E2600810AE12E0800F201283086000030870082
:101E3600473FF000F01F202F212F422F2000A80936
:101E4600A909AA09AB09AC09AD09AE09AF09A80AE7
:101E5600031D402FA90A031D402FAA0A031D402F68
:101E6600AB0A031D402FAC0A031D402FAD0A031D0C
:101E7600402FAE0A031D402FAF0AF201F20A2030AE
:101E8600860000308700473FF000F01F4B2F4C2F95
:101E96006B2F2000A009A109A209A309A409A5097D
:101EA600A609A709A00A031D6B2FA10A031D6B2F04
:101EB600A20A031D6B2FA30A031D6B2FA40A031D81
:101EC6006B2FA50A031D6B2FA60A031D6B2FA70AEE
:101ED60020002008210422042304240425042604C7
:101EE60027040319772F782FCB2FF101F10A872FBB
:101EF600A035A10DA20DA30DA40DA50DA60DA70D30
:101F06000130F0007008F107A71F8A2F8B2F7B2F57
:101F160027082F02031DA92F26082E02031DA92F0D
:101F260025082D02031DA92F24082C02031DA92F05
:101F360023082B02031DA92F22082A02031DA92FFD
:101F460021082902031DA92F20082802031CAC2FF3
:101F5600AD2FBD2F2008A8022108A93B2208AA3BC5
:101F66002308AB3B2408AC3B2508AD3B2608AE3B1B
:101F76002708AF3BA736A60CA50CA40CA30CA20CF5
:101F8600A10CA00C0130F102031DCA2FCB2F8B2F01
:101F960072080319CF2FD02FEE2FA809A909AA0975
:101FA600AB09AC09AD09AE09AF09A80A031DEE2FAE
:101FB600A90A031DEE2FAA0A031DEE2FAB0A031D65
:101FC600EE2FAC0A031DEE2FAD0A031DEE2FAE0A4F
:101FD600031DEE2FAF0A20002808A0002908A10043
:101FE6002A08A2002B08A3002C08A4002D08A5008F
:101FF6002E08A6002F08A700080049346E3469345D
:102006006334693461346C3469347A3461346E34DF
:1020160064346F34203465346C342034733469345A
:102026007334743465346D3461342E342E342E3466
:102036000A3400345334743461347434753473346C
:1020460020344F344E342F344F34463446343A34E9
:102056002034253464340A340D3400345334743453
:1020660061347434753473342034413475346434D3
:1020760069346F343A342034253464340A340D34E8
:102086000034533474346134743475347334203406
:102096004D346F34643465343A3420342534643432
:0E20A6000A340D340034233400340134003485
:020000040001F9
:04000E00E43FFF3F8D
:00000001FF
