:020000040000FA
:08000000803102288731002F36
:10016A00080008000800080008001630210097005F
:10017A0008008031EB2080310800823198228031DA
:10018A0008008131A1218031080071082000B500E2
:10019A007008B400080071082000B9007008B8009F
:1001AA00080071082000B7007008B6000800803106
:1001BA00EB2080312000BC01BC0A0800043020007A
:1001CA009B009A01911004309C00080080302100A5
:1001DA009E009F019B019C0101309D000800803018
:1001EA002C009C0002309B0040309A003F302500D2
:1001FA009E0508007030210099009801220096019E
:10020A0021001A1F09290A2905290800640080010A
:10021A0001310130FE020030FF3B7F087E04031DDE
:10022A000C290034003081314E2181317108F500EA
:10023A007008F4000230F536F40C890B2029740892
:10024A00080013303C00A0001430A10010303D001B
:10025A00A30024009401233095000130920021006C
:10026A008E1124009512080001303E00A5000F30BF
:10027A00A6001030A7001130A800A9010530AA0075
:10028A001030AB000830AC002030AD008030A40044
:10029A000800F3007308F200F20DF20D21001D08A8
:1002AA007206833972069D001D140D30890B5B2975
:1002BA00000021009D149D186329642960291C08E7
:1002CA00F1001B08F00008008131262181318231BA
:1002DA00982281318031FF2081318031BA208131E9
:1002EA008031EB2081318131392181318031F42013
:1002FA0081318031E32081318131A12181310800AE
:10030A008729A0297408F700F8017808003A031928
:10031A008F29A0297708003A03198629013A031977
:10032A008629033A03198629013A03198629063AC6
:10033A000319A029A0290800083023009F00803053
:10034A009D0024309E0040309B0003309C0000300A
:10035A00F0000030F1008031D02081310030F0000F
:10036A000030F1008031D62081310030F0000030B9
:10037A00F1008031CA208131FD0108000430813149
:10038A004E2181317108F6007008F50020003C0802
:10039A000319D029D129E329023076020030031942
:1003AA007502031CD929DA29DE29F40122008D15E8
:1003BA00FD29F401F40A22008D11FD29013076028B
:1003CA000A30031975020318EB29EC29F5290030C4
:1003DA007602FF30031975020318F429F529FA2960
:1003EA00F401F40A22008D11FD29F40122008D1571
:1003FA007408080073087204710470040319062A49
:10040A00072A402AF901F90A152A0130F035F10DB7
:10041A00F20DF30D890B0B2A0130F8007808F90761
:10042A00F31F182A192A0A2A73087702031D272A92
:10043A0072087602031D272A71087502031D272AEE
:10044A0070087402031C2A2A2B2A332A7008F40221
:10045A007108F53B7208F63B7308F73B0130F33637
:10046A00F20CF10CF00C890B342A0130F902031D4D
:10047A003F2A402A192A7708F3007608F2007508FD
:10048A00F1007408F0000800F3002400951A4E2ABF
:10049A004F2A972A7308F000F101F035F10DF03573
:1004AA00F10D2430700784008830713D8500000802
:1004BA0094007308F000F101F035F10DF035F10DFB
:1004CA002330700784008830713D8500000895004C
:1004DA0096017308F000F101F035F10DF035F10DD8
:1004EA002530700784008830713D8500000892002D
:1004FA007308F000F101F035F10DF035F10D2630F9
:10050A00700784008830713D85000008F200F20D02
:10051A00F20DF20D21000E087206F73972068E00EE
:10052A00240095160800220090018F018C018D018C
:10053A008E010F3021009000FF308C0087308D0033
:10054A00B7308E00FE308F00FE3023008F00E4307B
:10055A008E0020308D00073090003F308C00240040
:10056A008F0190018D018C018E01210095172500C4
:10057A0090018C018D018E018F01FF3026008C00C5
:10058A00FF308D00FF308E00FF308F000730900063
:10059A00FF3027008C00FF308D00FF308E00FF30C7
:1005AA008F000F30900014303C00A10010303D0045
:1005BA00A3003C00A80106303D00A8001430A600A4
:1005CA0013303C00A00008008131692182310030DB
:1005DA008231492282318031B72082313E30FA009D
:1005EA007A08F0003D30FB007B08F1003F30803193
:1005FA00B62082318031BE2082318031C2208231E0
:10060A008031DC2082318031B92082318031C620AC
:10061A00823100302000CF000030CE000030CD0003
:10062A000030CC000030B3000030B2000030B1001E
:10063A000030B0000030F3000030F2000030F1006A
:10064A006430F0004F08F7004E08F6004D08F50038
:10065A004C08F4008131FF2182317308720471045D
:10066A007004031D392B3A2B472B20003E08FA0051
:10067A007A08F0003D08FB007B08F1003F08803152
:10068A00B52082310030F3000030F2002730F1004B
:10069A001030F00020004F08F7004E08F6004D0811
:1006AA00F5004C08F4008131FF218231730872048D
:1006BA0071047004031D622B632B6A2B8131C321E1
:1006CA008231FA007A082000BC0020003C08031995
:1006DA006F2B702BDD2B4F083302031D7E2B4E0828
:1006EA003202031D7E2B4D083102031D7E2B4C085E
:1006FA0030020318812B822B892B87311A278231EA
:10070A00FA007A082000CA004A0803198D2B8E2B9A
:10071A00A82BCA013E08FA007A08F0003D08FB003F
:10072A007B08F1003F088031B82082316430200014
:10073A004C07B00000304D3DB10000304E3DB200D4
:10074A0000304F3DB3003F080319AC2BAD2BDD2B16
:10075A003D080319B12BB22BC42B813117218231E9
:10076A00FA007A082000CB0080304B02031CBE2B13
:10077A00BF2BC22B22000D17C42B22000D13200001
:10078A004F08F3004E08F2004D08F1004C08F00043
:10079A003E08FA007A08F4003D08FB007B08F500E1
:1007AA004B08FC007C08F600813185218231F42B4C
:1007BA004F08F3004E08F2004D08F1004C08F00013
:1007CA000530FA007A08F4003D08FB007B08F500C2
:1007DA004B08FC007C08F60081318521823101300A
:1007EA002000CC070030CD3D0030CE3D0030CF3D5B
:1007FA001F2B80310228FC3400340334F9340034CE
:10080A000634F63400340934F33400340C34F0344A
:10081A0000340F34ED3400341234EA340034153421
:10082A00E73400341834E43400341B34E13400343F
:10083A001E34DE3400342134DB3400342434D8341A
:10084A0000342734D53400342A34D23400342D34D9
:10085A00CF3400343034CC3400343334C934003427
:10086A003634C63400343934C33400343C34C034EA
:10087A0000343F34BD3400344234BA340034453491
:10088A00B73400344834B43400344B34B13400340F
:10089A004E34AE3400345134AB3400345434A834BA
:1008AA0000345734A53400345A34A23400345D3449
:1008BA009F34003460349C340034633499340034F7
:1008CA006634963400346934933400346C3490348A
:1008DA0000346F348D34003472348A340034753401
:1008EA00873400347834843400347B3481340034DF
:1008FA007E347E34003481347B340034843478345A
:10090A0000348734753400348A34723400348D34B8
:10091A006F34003490346C340034933469340034C6
:10092A009634663400349934633400349C34603429
:10093A0000349F345D340034A2345A340034A53470
:10094A0057340034A83454340034AB3451340034AE
:10095A00AE344E340034B1344B340034B4344834F9
:10096A000034B73445340034BA3442340034BD3428
:10097A003F340034C0343C340034C3343934003496
:10098A00C63436340034C93433340034CC343034C9
:10099A000034CF342D340034D2342A340034D534E0
:1009AA0027340034D83424340034DB34213400347E
:1009BA00DE341E340034E1341B340034E434183499
:1009CA000034E73415340034EA3412340034ED3498
:1009DA000F340034F0340C340034F3340934003466
:1009EA00F63406340034F93403340034FC34003469
:1009FA000034FF3400340334FC3400340634F93450
:100A0A0000340934F63400340C34F33400340F342F
:100A1A00F03400341234ED3400341534EA3400343E
:100A2A001834E73400341B34E43400341E34E1341F
:100A3A0000342134DE3400342434DB3400342734E7
:100A4A00D83400342A34D53400342D34D234003426
:100A5A003034CF3400343334CC3400343634C934EF
:100A6A0000343934C63400343C34C33400343F349F
:100A7A00C03400344234BD3400344534BA3400340E
:100A8A004834B73400344B34B43400344E34B134BF
:100A9A0000345134AE3400345434AB340034573457
:100AAA00A83400345A34A53400345D34A2340034F6
:100ABA0060349F34003463349C340034663499348F
:100ACA0000346934963400346C34933400346F340F
:100ADA009034003472348D34003475348A340034DE
:100AEA007834873400347B34843400347E3481345F
:100AFA00003481347E34003484347B3400348734C7
:100B0A00783400348A34753400348D3472340034C5
:100B1A0090346F34003493346C340034963469342E
:100B2A0000349934663400349C34633400349F347E
:100B3A0060340034A2345D340034A5345A340034AD
:100B4A00A83457340034AB3454340034AE345134FE
:100B5A000034B1344E340034B4344B340034B73436
:100B6A0048340034BA3445340034BD344234003495
:100B7A00C0343F340034C3343C340034C6343934CE
:100B8A000034C93436340034CC3433340034CF34EE
:100B9A0030340034D2342D340034D5342A3400347D
:100BAA00D83427340034DB3424340034DE3421349E
:100BBA000034E1341E340034E4341B340034E734A6
:100BCA0018340034EA3415340034ED341234003465
:100BDA00F0340F340034F3340C340034F63409346E
:100BEA000034F93406340034FC3403340034FF345E
:100BFA0000340334FC3400340634F9340034093444
:100C0A00F63400340C34F33400340F34F034003446
:100C1A001234ED3400341534EA3400341834E7342D
:100C2A0000341B34E43400341E34E13400342134FB
:100C3A00DE3400342434DB3400342734D83400342E
:100C4A002A34D53400342D34D23400343034CF34FD
:100C5A0000343334CC3400343634C93400343934B3
:100C6A00C63400343C34C33400343F34C034003416
:100C7A004234BD3400344534BA3400344834B734CD
:100C8A0000344B34B43400344E34B134003451346B
:100C9A00AE3400345434AB3400345734A8340034FE
:100CAA005A34A53400345D34A234003460349F349D
:100CBA00003463349C340034663499340034693423
:100CCA00963400346C34933400346F3490340034E6
:100CDA0072348D34003475348A340034783487346D
:100CEA0000347B34843400347E34813400348134DB
:100CFA007E34003484347B340034873478340034CE
:100D0A008A34753400348D347234003490346F343C
:100D1A00003493346C340034963469340034993492
:100D2A00663400349C34633400349F3460340034B5
:100D3A00A2345D340034A5345A340034A83457340C
:100D4A000034AB3454340034AE3451340034B1344A
:100D5A004E340034B4344B340034B734483400349D
:100D6A00BA3445340034BD3442340034C0343F34DC
:100D7A000034C3343C340034C63439340034C93402
:100D8A0036340034CC3433340034CF343034003485
:100D9A00D2342D340034D5342A340034D8342734AC
:100DAA000034DB3424340034DE3421340034E134BA
:100DBA001E340034E4341B340034E734183400346D
:100DCA00EA3415340034ED3412340034F0340F347C
:100DDA000034F3340C340034F63409340034F93472
:100DEA0006340034FC3403340034FF340034003455
:100DFA000034003400343C30840023308500B430A1
:100E0A00FE000030FF0081310B218731FD012030C7
:100E1A008400003085002030FE000030FF00813160
:100E2A000B21873120008231E92A2000C0010D08F8
:100E3A000139F000F101F2017008C1007108C20025
:100E4A007208C3000D0C0139F000F101F2017008BB
:100E5A00C4007108C5007208C6000D0C890C01395E
:100E6A00F000F101F2017008C7007108C8007208A9
:100E7A00C9004708F0004808F1004908F200410893
:100E8A004407F3004208453DF4004308463DF50097
:100E9A007308F0077408F13D7508F23D7208710491
:100EAA0070040319592F5A2F5C2FC001C00A430836
:100EBA00420441040319622F632F752F0130F00099
:100ECA007008BF070130F0007008BF053F0803191A
:100EDA006F2F702F732F22008D16752F22008D12FF
:100EEA00200046084504440403197C2F7D2F852FD2
:100EFA000130F0007008BE070330F0007008BE052C
:100F0A0049084804470403198B2F8C2F9E2F013060
:100F1A00F0007008BD070130F0007008BD053D08FB
:100F2A000319982F992F9C2F22000D169E2F22000D
:100F3A000D122000400808007E3411341134113497
:100F4A007E347F3449344934493436343E3441346A
:100F5A004134413422347F344134413422341C3404
:100F6A007F3449344934493441347F3409340934AB
:100F7A00093401343E344134493449347A347F34B3
:100F8A000834083408347F34003441347F3441341F
:100F9A0000342034403441343F3401347F3408343F
:100FAA001434223441347F344034403440344034A1
:100FBA007F3402340C3402347F347F3404340834EE
:100FCA0010347F343E344134413441343E347F342A
:100FDA0009340934093406343E3441345134213455
:100FEA005E347F340934193429344634463449345A
:100FFA00493449343134013401347F340134013401
:10100A003F344034403440343F341F342034403479
:10101A0020341F343F344034383440343F3463344E
:10102A0014340834143463340734083470340834FC
:10103A000734613451344934453443342334003459
:04104A000134003439
:020000040001F9
:04000E00E43FFF3F8D
:00000001FF
