:020000040000FA
:10000000803102288731002F080071082000B700D6
:100010007008B600080080311A2080312000BC0131
:10002000BC0A0800043020009B009A0191100430A3
:100030009C000800803021009E009F019B019C01D4
:1000400001309D00080080302C009C0002309B0095
:1000500040309A003F3025009E0508007030210096
:10006000990098012200960121001A1F382839288A
:10007000342808006400800101310130FE020030A4
:10008000FF3B7F087E04031D3B2800340030803195
:10009000C12080317108F5007008F4000230F53697
:1000A000F40C890B4F287408080013303C00A000A2
:1000B0001430A10010303D00A3002400940123302F
:1000C00095000130920021008E1124009512080045
:1000D00001303E00A5000F30A6001030A7001130FF
:1000E000A800A9010530AA001030AB000830AC0010
:1000F0002030AD008030A4000800F2007008240019
:100100009100141C84288528812872089100141CF1
:100110008A288B28872871089100141C9028912820
:100120008D280800F601F70100308031A8208031C9
:1001300029302000C4009630C3007F30890B9E28F0
:10014000C30B9E28C40B9E2882317C22803108007C
:10015000FA00FB017608F8007808F0007708F9004B
:100160007908F1007A0880317D2080310130F80073
:100170007808FB0780307B02031CBF28C028AA2810
:100180000800F3007308F200F20DF20D21001D08C3
:100190007206833972069D001D140D30890BCE281E
:1001A000000021009D149D18D628D728D3281C08AC
:1001B000F1001B08F00008008031552080318231A9
:1001C0002B22803180312E2080318F31E427803105
:1001D00080311A20803180316820803180312320A5
:1001E000803180311220803181313321803108000B
:1001F000FA2813297408F700F8017808003A03195F
:10020000022913297708003A0319F928013A03193A
:10021000F928033A0319F928013A0319F928063A8B
:100220000319132913290800F401F501701C192979
:100230001A291E297208F4077308F53D0130F235BA
:10024000F30D890B1F290130F136F00C890B24299D
:1002500070087104031D2D292E2916297508F10037
:100260007408F0000800083023009F0080309D00D3
:1002700024309E0040309B0003309C000030F00092
:100280000030F1008F31FA2781310030F00000306A
:10029000F1008031052081310030F0000030F100A4
:1002A0008F31F42781312000BD01080004308031F6
:1002B000C12081317108F6007008F50020003C086B
:1002C0000319632964297629023076020030031964
:1002D0007502031C6C296D297129F40122008D150A
:1002E0009029F401F40A22008D1190290130760240
:1002F0000A300319750203187E297F2988290030E6
:100300007602FF30031975020318872988298D2981
:10031000F401F40A22008D119029F40122008D15B8
:100320007408080073087204710470040319992991
:100330009A29D329F901F90AA8290130F035F10DDC
:10034000F20DF30D890B9E290130F8007808F907AA
:10035000F31FAB29AC299D2973087702031DBA2925
:1003600072087602031DBA2971087502031DBA29A5
:1003700070087402031CBD29BE29C6297008F40246
:100380007108F53B7208F63B7308F73B0130F33612
:10039000F20CF10CF00C890BC7290130F902031D96
:1003A000D229D329AC297708F3007608F200750822
:1003B000F1007408F0000800F3002400951AE12908
:1003C000E2292A2A7308F000F101F035F10DF03529
:1003D000F10D0130700784009030713D85000008F8
:1003E00094007308F000F101F035F10DF035F10DD6
:1003F0000030700784009030713D85000008950042
:1004000096017308F000F101F035F10DF035F10DB2
:100410000230700784009030713D85000008920022
:100420007308F000F101F035F10DF035F10D0330F6
:10043000700784009030713D85000008F200F20DD5
:10044000F20DF20D21000E087206F73972068E00C9
:10045000240095160800220090018F018C018D0167
:100460008E010F3021009000FF308C0087308D000E
:10047000B7308E00FE308F00FE3023008F00E43056
:100480008E0020308D00073090003F308C0024001B
:100490008F0190018D018C018E012100951725009F
:1004A00090018C018D018E018F01FF3026008C00A0
:1004B000FF308D00FF308E00FF308F00073090003E
:1004C000FF3027008C00FF308D00FF308E00FF30A2
:1004D0008F000F30900014303C00A10010303D0020
:1004E000A3003C00A80106303D00A8001430A6007F
:1004F00013303C00A00008002000C101C2014208E6
:10050000F1004108F0000330F2000030F3008131C7
:10051000142182317108850070088400013084073D
:100520008430853D0008FC007C08F600200042086D
:10053000F1004108F0000330F2000030F300813197
:10054000142182317108850070088400023084070C
:100550008430853D0008FD007D08F700200042083A
:10056000F1004108F0000330F2000030F300813167
:1005700014218231710885007008840000308407DE
:100580008430853D00088031A82082312000410858
:10059000023EC1000030423DC2000330FD00083081
:1005A000FC007730890BD22AFC0BD22AFD0BD22A11
:1005B000000001302000C1070030C23D003042027F
:1005C000FE3003194102031CE62AE72A7F2A0800AD
:1005D0008031DC20823100308131DC2182318F3169
:1005E000E32782313F302000CB004B08F0003E3043
:1005F000CC004C08F10040308F31E22782318F313E
:10060000E82782318F31EC27823180310B20823113
:100610008031922082318F31F027823100302000EA
:10062000D3000030D2000030D1000030D0000030C4
:10063000B3000030B2000030B1000030B000003034
:10064000F3000030F2000030F1006430F000530895
:10065000F7005208F6005108F5005008F400813107
:10066000922182317308720471047004031D392BC6
:100670003A2B472B20003F08CB004B08F0003E08E8
:10068000CC004C08F10040088F31E1278231003066
:10069000F3000030F2002730F1001030F0002000AD
:1006A0005308F7005208F6005108F5005008F4000E
:1006B0008131922182317308720471047004031D28
:1006C000622B632B6A2B8131562182312000CB00B3
:1006D0004B08BC0020003C0803196F2B702BDD2B4E
:1006E00053083302031D7E2B52083202031D7E2B5A
:1006F00051083102031D7E2B500830020318812B54
:10070000822B892B8731192782312000CB004B089F
:10071000CE004E0803198D2B8E2BA82BCE013F083F
:10072000CB004B08F0003E08CC004C08F10040081C
:10073000803104208231643020005007B000003046
:10074000513DB1000030523DB2000030533DB30086
:1007500040080319AC2BAD2BDD2B3E080319B12B40
:10076000B22BC42B8031462082312000CB004B08B5
:10077000CF0080304F02031CBE2BBF2BC22B2200A8
:100780000D17C42B22000D1320005308F30052084C
:10079000F2005108F1005008F0003F08CB004B0870
:1007A000F4003E08CC004C08F5004F08CD004D0881
:1007B000F6008031F8208231F42B5308F300520800
:1007C000F2005108F1005008F0000530CB004B0852
:1007D000F4003E08CC004C08F5004F08CD004D0851
:1007E000F6008031F820823101302000D00700303F
:1007F000D13D0030D23D0030D33D1F2B8031022847
:10080000FC3400340334F93400340634F634003454
:100810000934F33400340C34F03400340F34ED3444
:1008200000341234EA3400341534E7340034183418
:10083000E43400341B34E13400341E34DE3400343C
:100840002134DB3400342434D83400342734D53414
:1008500000342A34D23400342D34CF3400343034D0
:10086000CC3400343334C93400343634C634003424
:100870003934C33400343C34C03400343F34BD34E4
:1008800000344234BA3400344534B7340034483488
:10089000B43400344B34B13400344E34AE3400340C
:1008A0005134AB3400345434A83400345734A534B4
:1008B00000345A34A23400345D349F340034603440
:1008C0009C340034633499340034663496340034F4
:1008D0006934933400346C34903400346F348D3484
:1008E000003472348A3400347534873400347834F8
:1008F000843400347B34813400347E347E340034DC
:1009000081347B3400348434783400348734753453
:1009100000348A34723400348D346F3400349034AF
:100920006C340034933469340034963466340034C3
:100930009934633400349C34603400349F345D3423
:100940000034A2345A340034A53457340034A83467
:1009500054340034AB3451340034AE344E340034AB
:10096000B1344B340034B43448340034B7344534F3
:100970000034BA3442340034BD343F340034C0341F
:100980003C340034C33439340034C6343634003493
:10099000C93433340034CC3430340034CF342D34C3
:1009A0000034D2342A340034D53427340034D834D7
:1009B00024340034DB3421340034DE341E3400347B
:1009C000E1341B340034E43418340034E734153493
:1009D0000034EA3412340034ED340F340034F0348F
:1009E0000C340034F33409340034F6340634003463
:1009F000F93403340034FC3400340034FF34003460
:100A00000334FC3400340634F93400340934F63449
:100A100000340C34F33400340F34F0340034123426
:100A2000ED3400341534EA3400341834E73400343B
:100A30001B34E43400341E34E13400342134DE3419
:100A400000342434DB3400342734D83400342A34DE
:100A5000D53400342D34D23400343034CF34003423
:100A60003334CC3400343634C93400343934C634E9
:100A700000343C34C33400343F34C0340034423496
:100A8000BD3400344534BA3400344834B73400340B
:100A90004B34B43400344E34B13400345134AE34B9
:100AA00000345434AB3400345734A83400345A344E
:100AB000A53400345D34A234003460349F340034F3
:100AC00063349C3400346634993400346934963489
:100AD00000346C34933400346F3490340034723406
:100AE0008D34003475348A340034783487340034DB
:100AF0007B34843400347E348134003481347E3459
:100B0000003484347B3400348734783400348A34BD
:100B1000753400348D347234003490346F340034C2
:100B200093346C3400349634693400349934663428
:100B300000349C34633400349F3460340034A23475
:100B40005D340034A5345A340034A83457340034AA
:100B5000AB3454340034AE3451340034B1344E34F8
:100B60000034B4344B340034B73448340034BA342D
:100B700045340034BD3442340034C0343F34003492
:100B8000C3343C340034C63439340034C9343634C8
:100B90000034CC3433340034CF3430340034D234E5
:100BA0002D340034D5342A340034D834273400347A
:100BB000DB3424340034DE3421340034E1341E3498
:100BC0000034E4341B340034E73418340034EA349D
:100BD00015340034ED3412340034F0340F34003462
:100BE000F3340C340034F63409340034F934063468
:100BF0000034FC3403340034FF3400340334FC3458
:100C000000340634F93400340934F63400340C343A
:100C1000F33400340F34F03400341234ED34003443
:100C20001534EA3400341834E73400341B34E43427
:100C300000341E34E13400342134DE3400342434F2
:100C4000DB3400342734D83400342A34D53400342B
:100C50002D34D23400343034CF3400343334CC34F7
:100C600000343634C93400343934C63400343C34AA
:100C7000C33400343F34C03400344234BD34003413
:100C80004534BA3400344834B73400344B34B434C7
:100C900000344E34B13400345134AE340034543462
:100CA000AB3400345734A83400345A34A5340034FB
:100CB0005D34A234003460349F34003463349C3497
:100CC00000346634993400346934963400346C341A
:100CD000933400346F349034003472348D340034E3
:100CE00075348A3400347834873400347B34843467
:100CF00000347E348134003481347E3400348434D2
:100D00007B3400348734783400348A3475340034CA
:100D10008D347234003490346F34003493346C3436
:100D200000349634693400349934663400349C3489
:100D3000633400349F3460340034A2345D340034B2
:100D4000A5345A340034A83457340034AB34543406
:100D50000034AE3451340034B1344E340034B43441
:100D60004B340034B73448340034BA34453400349A
:100D7000BD3442340034C0343F340034C3343C34D6
:100D80000034C63439340034C93436340034CC34F9
:100D900033340034CF3430340034D2342D34003482
:100DA000D5342A340034D83427340034DB342434A6
:100DB0000034DE3421340034E1341E340034E434B1
:100DC0001B340034E73418340034EA34153400346A
:100DD000ED3412340034F0340F340034F3340C3476
:100DE0000034F63409340034F93406340034FC3469
:100DF00003340034FF340034003400340034003451
:100E00003C30840023308500B430FE000030FF0009
:100E100080313A2087312030840000308500213035
:100E2000FE000030FF0080313A20873120008231FF
:100E3000E82A2000C1010D080139F000F101F2019A
:100E40007008C2007108C3007208C4000D0C01399B
:100E5000F000F101F2017008C5007108C6007208C7
:100E6000C7000D0C890C0139F000F101F201700886
:100E7000C8007108C9007208CA004808F000490893
:100E8000F1004A08F20042084507F3004308463DD6
:100E9000F4004408473DF5007308F0077408F13D7D
:100EA0007508F23D7208710470040319582F592F08
:100EB0005B2FC101C10A4408430442040319612F96
:100EC000622F742F0130F0007008C0070130F0006D
:100ED0007008C005400803196E2F6F2F722F220073
:100EE0008D16742F22008D122000470846044504F9
:100EF00003197B2F7C2F842F0130F0007008BF076F
:100F00000330F0007008BF054A084904480403197B
:100F10008A2F8B2F9D2F0130F0007008BE07013003
:100F2000F0007008BE053E080319972F982F9B2FDD
:100F300022000D169D2F22000D12200041080800EE
:100F40007E341134113411347E347F3449344934C1
:100F5000493436343E3441344134413422347F34D0
:100F60004134413422341C347F34493449344934C7
:100F700041347F3409340934093401343E34413476
:100F8000493449347A347F340834083408347F349F
:100F9000003441347F34413400342034403441340F
:100FA0003F3401347F3408341434223441347F34E4
:100FB00040344034403440347F3402340C34023402
:100FC0007F347F340434083410347F343E34413469
:100FD000413441343E347F34093409340934063411
:100FE0003E344134513421345E347F340934193471
:100FF000293446344634493449344934313401348F
:1010000001347F34013401343F34403440344034BF
:101010003F341F342034403420341F343F344034B4
:10102000383440343F346334143408341434633473
:101030000734083470340834073461345134493487
:0410400045344334BC
:101FC2000800080008001630210097000800803140
:101FD2001A208F31080082312B228F310800813183
:101FE20033218F31080071082000B5007008B40059
:101FF200080071082000B9007008B80008002334F6
:062002000034013400343B
:020000040001F9
:04000E00E43FFF3F8D
:00000001FF
