:020000040000FA
:1000000080311328080008007E1480318B1D0928D8
:100010000A2811280B1C0D280E28112889310C21C3
:1000200080317E1009008731002F2000BB0030088E
:10003000C4003108C5003208C6003308C7003408C0
:10004000C8003508C9003608CA003708CB0044305C
:10005000860000308700473FB800B81B30283228A0
:100060000130332800302000B900BA013908C2003D
:100070003A08C3004208430403193F2840285E2879
:10008000C409C509C609C709C809C909CA09CB09EC
:10009000C40A031D5E28C50A031D5E28C60A031D87
:1000A0005E28C70A031D5E28C80A031D5E28C90A08
:1000B000031D5E28CA0A031D5E28CB0A2100CB1B44
:1000C000622863286728FD30CC05FF30CD054B083A
:1000D000803A2000B80080303802031D72280130B9
:1000E00021004A020318752876287C280130200058
:1000F000BE000030BF00842821004B082000BF0054
:1001000021004A082000BE00210049082000C1004B
:10011000210048082000C00042084304031D912824
:100120009228972821004C1D962897289C28FF305C
:100130002000C007FF30C13D1F302000CC00003040
:10014000CD002200E3010D29FF302000CC07FF3055
:10015000CD3D0A30A000A101A201A301A401A50187
:10016000A601A7014408A8004508A9004608AA005E
:100170004708AB004808AC004908AD004A08AE008B
:100180004B08AF008F311627803120002108F50081
:100190002008F4008931252180317408303E200088
:1001A000B8004C08443E86000130870038088100C2
:1001B000FF30BE07FF30BF3DFF30C007FF30C13DFD
:1001C0000A30A000A101A201A301A401A501A6017A
:1001D000A7014408A8004508A9004608AA00470846
:1001E000AB004808AC004908AD004A08AE004B0817
:1001F000AF0082319022803120002008C400210805
:10020000C5002208C6002308C7002408C800250826
:10021000C9002608CA002708CB0020004D08803AF4
:10022000B80080303802031D172901304C02031C2E
:100230001A291B294829200044084504460447047C
:10024000480449044A044B04031D27292829A428EB
:100250003F08803AB80080303802031D3129013050
:100260003E02031834293529A42820004108803A89
:10027000B80080303802031D3F2901304002031CC2
:100280004229432948292100CC1847294829A42874
:10029000200042084304031D4E294F295429210000
:1002A0004C1D532954297129FF302000CC07FF3001
:1002B000CD3D42084304031D5E295F2964292B308C
:1002C000BC000030BD0068292D30BC000030BD00EE
:1002D0003C08B8004C08443E8600013087003808CE
:1002E000810020004C08443EB8003808A7004108AF
:1002F000A9004008A8003B088C311224803120005E
:100300002808B1002708B000080089318F21813109
:100310008B170B1700308B31202381318731FE275B
:100320008131DB302100BE003E08F100DA30BF0031
:100330003F08F200DC308731FF27813188310E2001
:1003400081318331FC2381318831362081318831FC
:100350005820813188316D20813100302100C50065
:100360000030C4000030C3000030C2000030F40090
:100370000030F3000030F2006430F1004508F8006E
:100380004408F7004308F6004208F5008A31D622F7
:1003900081317408730472047104031DD029D129BA
:1003A000E22921005B08BE003E082000EB0021008E
:1003B0005A08BF003F082000EC0021005C088B3188
:1003C000BE2381310030F4000030F3000030F20031
:1003D0000A30F10021004508F8004408F7004308FE
:1003E000F6004208F5008A31D62281317408730480
:1003F00072047104031DFD29FE29052A8731CA27CD
:1004000081312100BE003E08D800210058080319A0
:100410000A2A0B2A602A590803190F2A102A1D2AB2
:10042000D9015B08BE003E08F1005A08BF003F0832
:10043000F2005C088731FD27813121005C08031937
:10044000222A232A602A5A080319272A282A3A2A04
:100450008831902081312100BE003E08C1008030EB
:100460004102031C342A352A382A22000E153A2A62
:1004700022000E11210045082000AF002100440891
:100480002000AE00210043082000AD0021004208FA
:100490002000AC0021005B08BE003E082000B00038
:1004A00021005A08BF003F082000B1002100410888
:1004B000C00040082000B2008D31B1258131842A6E
:1004C00045082000AF00210044082000AE002100B4
:1004D00043082000AD00210042082000AC00053098
:1004E0002100BE003E082000B00021005A08BF00D5
:1004F0003F082000B10021004108C0004008200052
:10050000B2008D31B125813101302100C2070030A8
:10051000C33D0030C43D0030C53DB62980311328AD
:10052000F3012030860000308700473FF100F11FC3
:100530009A2A9B2ABC2A2000A009A109A209A30982
:10054000A409A509A609A709A00A031DBA2AA10A98
:10055000031DBA2AA20A031DBA2AA30A031DBA2A36
:10056000A40A031DBA2AA50A031DBA2AA60A031D56
:10057000BA2AA70AF301F30A283086000030870060
:10058000473FF100F11FC52AC62AE92A2000A80921
:10059000A909AA09AB09AC09AD09AE09AF09A80AB6
:1005A000031DE52AA90A031DE52AAA0A031DE52A57
:1005B000AB0A031DE52AAC0A031DE52AAD0A031D9B
:1005C000E52AAE0A031DE52AAF0A0130F1007108E1
:1005D000F30674308600003087000830F1000030E8
:1005E0001E00F10BF02A200020082104220423041D
:1005F00024042504260427040319FF2A002B5C2B5E
:10060000F201F20A0F2BA035A10DA20DA30DA40D2E
:10061000A50DA60DA70D0130F1007108F207A71F67
:10062000122B132B032BF435F50DF60DF70DF80DEA
:10063000F90DFA0DFB0D27082F02031D392B260893
:100640002E02031D392B25082D02031D392B2408EA
:100650002C02031D392B23082B02031D392B2208E2
:100660002A02031D392B21082902031D392B2008DA
:100670002802031C3C2B3D2B4E2B2008A8022108EE
:10068000A93B2208AA3B2308AB3B2408AC3B250826
:10069000AD3B2608AE3B2708AF3B7414A736A60C2B
:1006A000A50CA40CA30CA20CA10CA00C0130F2020E
:1006B000031D5B2B5C2B132B73080319602B612B21
:1006C0007F2BF409F509F609F709F809F909FA0980
:1006D000FB09F40A031D7F2BF50A031D7F2BF60A85
:1006E000031D7F2BF70A031D7F2BF80A031D7F2BA9
:1006F000F90A031D7F2BFA0A031D7F2BFB0A7408DE
:100700002000A0007508A1007608A2007708A300C9
:100710007808A4007908A5007A08A6007B08A7003D
:100720000800FB00F701F8010030893174218331A2
:1007300034302000A200F130890B9C2BA20B9C2BA3
:1007400000327B082000A200A3012208F100230848
:10075000F2000330F3000030F4008931CA21833104
:100760007208850071088400013084078430853D5B
:1007700000082000A4002408F7007B08A500A601BB
:100780002508F1002608F2000330F3000030F400E1
:100790008931CA21833172088500710884000230D2
:1007A00084078430853D00082000A7002708F80052
:1007B0007B08A800A9012808F1002908F2000330ED
:1007C000F3000030F4008931CA21833172088500BA
:1007D00071088400003084078430853D0008893129
:1007E0007421833134302000A200F130890BF62BC4
:1007F000A20BF62B003208008D313C258331080016
:10080000FC3400340334F93400340634F634003454
:100810000934F33400340C34F03400340F34ED3444
:1008200000341234EA3400341534E7340034183418
:10083000E43400341B34E13400341E34DE3400343C
:100840002134DB3400342434D83400342734D53414
:1008500000342A34D23400342D34CF3400343034D0
:10086000CC3400343334C93400343634C634003424
:100870003934C33400343C34C03400343F34BD34E4
:1008800000344234BA3400344534B7340034483488
:10089000B43400344B34B13400344E34AE3400340C
:1008A0005134AB3400345434A83400345734A534B4
:1008B00000345A34A23400345D349F340034603440
:1008C0009C340034633499340034663496340034F4
:1008D0006934933400346C34903400346F348D3484
:1008E000003472348A3400347534873400347834F8
:1008F000843400347B34813400347E347E340034DC
:1009000081347B3400348434783400348734753453
:1009100000348A34723400348D346F3400349034AF
:100920006C340034933469340034963466340034C3
:100930009934633400349C34603400349F345D3423
:100940000034A2345A340034A53457340034A83467
:1009500054340034AB3451340034AE344E340034AB
:10096000B1344B340034B43448340034B7344534F3
:100970000034BA3442340034BD343F340034C0341F
:100980003C340034C33439340034C6343634003493
:10099000C93433340034CC3430340034CF342D34C3
:1009A0000034D2342A340034D53427340034D834D7
:1009B00024340034DB3421340034DE341E3400347B
:1009C000E1341B340034E43418340034E734153493
:1009D0000034EA3412340034ED340F340034F0348F
:1009E0000C340034F33409340034F6340634003463
:1009F000F93403340034FC3400340034FF34003460
:100A00000334FC3400340634F93400340934F63449
:100A100000340C34F33400340F34F0340034123426
:100A2000ED3400341534EA3400341834E73400343B
:100A30001B34E43400341E34E13400342134DE3419
:100A400000342434DB3400342734D83400342A34DE
:100A5000D53400342D34D23400343034CF34003423
:100A60003334CC3400343634C93400343934C634E9
:100A700000343C34C33400343F34C0340034423496
:100A8000BD3400344534BA3400344834B73400340B
:100A90004B34B43400344E34B13400345134AE34B9
:100AA00000345434AB3400345734A83400345A344E
:100AB000A53400345D34A234003460349F340034F3
:100AC00063349C3400346634993400346934963489
:100AD00000346C34933400346F3490340034723406
:100AE0008D34003475348A340034783487340034DB
:100AF0007B34843400347E348134003481347E3459
:100B0000003484347B3400348734783400348A34BD
:100B1000753400348D347234003490346F340034C2
:100B200093346C3400349634693400349934663428
:100B300000349C34633400349F3460340034A23475
:100B40005D340034A5345A340034A83457340034AA
:100B5000AB3454340034AE3451340034B1344E34F8
:100B60000034B4344B340034B73448340034BA342D
:100B700045340034BD3442340034C0343F34003492
:100B8000C3343C340034C63439340034C9343634C8
:100B90000034CC3433340034CF3430340034D234E5
:100BA0002D340034D5342A340034D834273400347A
:100BB000DB3424340034DE3421340034E1341E3498
:100BC0000034E4341B340034E73418340034EA349D
:100BD00015340034ED3412340034F0340F34003462
:100BE000F3340C340034F63409340034F934063468
:100BF0000034FC3403340034FF3400340334FC3458
:100C000000340634F93400340934F63400340C343A
:100C1000F33400340F34F03400341234ED34003443
:100C20001534EA3400341834E73400341B34E43427
:100C300000341E34E13400342134DE3400342434F2
:100C4000DB3400342734D83400342A34D53400342B
:100C50002D34D23400343034CF3400343334CC34F7
:100C600000343634C93400343934C63400343C34AA
:100C7000C33400343F34C03400344234BD34003413
:100C80004534BA3400344834B73400344B34B434C7
:100C900000344E34B13400345134AE340034543462
:100CA000AB3400345734A83400345A34A5340034FB
:100CB0005D34A234003460349F34003463349C3497
:100CC00000346634993400346934963400346C341A
:100CD000933400346F349034003472348D340034E3
:100CE00075348A3400347834873400347B34843467
:100CF00000347E348134003481347E3400348434D2
:100D00007B3400348734783400348A3475340034CA
:100D10008D347234003490346F34003493346C3436
:100D200000349634693400349934663400349C3489
:100D3000633400349F3460340034A2345D340034B2
:100D4000A5345A340034A83457340034AB34543406
:100D50000034AE3451340034B1344E340034B43441
:100D60004B340034B73448340034BA34453400349A
:100D7000BD3442340034C0343F340034C3343C34D6
:100D80000034C63439340034C93436340034CC34F9
:100D900033340034CF3430340034D2342D34003482
:100DA000D5342A340034D83427340034DB342434A6
:100DB0000034DE3421340034E1341E340034E434B1
:100DC0001B340034E73418340034EA34153400346A
:100DD000ED3412340034F0340F340034F3340C3476
:100DE0000034F63409340034F93406340034FC3469
:100DF00003340034FF340034003400340034003451
:100E00003C30840023308500B430FE000030FF0009
:100E1000883184208731FC01C63084000030850091
:100E20001730FE000030FF008831842087312030E9
:100E30008400013085004430FE000030FF0088311E
:100E4000842087317E102000813185292000AA006E
:100E5000FF30F7000030F8002A08A600A701260896
:100E6000F1002708F2000F30F3000030F400893160
:100E7000CA2187317208FA007108F9008C316B249D
:100E8000873177082000A8000230A835FF3E031DF7
:100E9000452F2835083EA9002908AB002408210069
:100EA0004E07CE002000250821004F3DCF004F08FF
:100EB000803A2000A60081302602031D622F0030F8
:100EC00021004E02031C652F662F692F2100CE01E1
:100ED000CF012100CF1F6D2F6E2F722FFF30CE005C
:100EE0000030CF004F08F2004E08F1000330F3004D
:100EF0000030F4008931CA218731720885007108F9
:100F00008400013084078430853D00082000A6005D
:100F10002608F70021004F08F2004E08F1000330C8
:100F2000F3000030F4008931CA218731720885004E
:100F300071088400023084078430853D0008200059
:100F4000A7002708F800F9012B08A8002808FA00D4
:100F500021004F08F2004E08F1000330F30000308A
:100F6000F4008931CA218731720885007108840034
:100F7000003084078430853D00088931AB218731FA
:100F800034302000A600F130890BC42FA60BC42FEB
:100F90000032080001308931592187317208F6008A
:100FA0007108F500210058080319D72FD82FEA2F10
:100FB00000307602853003197502031CE02FE12F03
:100FC000E52FF70122008D15FB2FF701F70A22000C
:100FD0008D11FB2F00307602703003197502031853
:100FE000F22FF32FF82FF701F70A22008D11FB2FB4
:100FF000F70122008D157708080008000800080096
:10101000080008001630210097000800883145209C
:101020008831080072082100D1007108D000080042
:1010300072082100D5007108D40008007208210050
:10104000D3007108D200080072082100E200710884
:10105000E100080072082100E0007108DF000800CC
:1010600072082100DE007108DD000800883145208B
:1010700088312100D801D80A0800043020009B00E4
:101080009A01911004309C000800803021009E00DD
:101090009F019B019C0101309D000800F100200090
:1010A000111E532854284F28710823009A00080065
:1010B0002100CE01CF01F701F80100308931742100
:1010C0008831080080302C009C0002309B004030AA
:1010D0009A003F3025009E0508008931E9218831BA
:1010E0000030F2009030F3008831DC2088310800B5
:1010F00070302100990098012200960121001A1FEA
:10110000822883287E280800640080010131013094
:10111000FE020030FF3B7F087E04031D852800345B
:1011200000308931592188317208F6007108F500C4
:101130000230F636F50C890B992875080800133033
:101140003C00A0001430A10010303D00A30024009A
:101150009401233095000130920021008E1124006B
:101160009512080001303E00A5000F30A600103097
:10117000A7001130A800A9010530AA001030AB006B
:101180000830AC002030AD008030A4000800F3002F
:10119000710824009100141CCE28CF28CB28730896
:1011A0009100141CD428D528D12872089100141C51
:1011B000DA28DB28D7280800E92872088400730899
:1011C0008500000888314E2088310130F207003058
:1011D000F33D72088400730885001200031DF12896
:1011E000F228DD2808002100D901D90A0130F000D9
:1011F0007008DB070330F0007008DB055F0860044F
:10120000031903290429092960088A005F080A00D4
:1012100089312700961008002700161C1029112973
:1012200014298A310B2289312700961C1829192983
:101230001C298831F32089312700161D20292129F6
:1012400024298A312F22893108007508803AF60056
:1012500080307602031D2E290130740203183129D3
:1012600032293E297409F6007509F700F60A0319B8
:10127000F70A7608F4007708F5003E290800F50023
:101280007508F3007308F40049290130F30073086E
:10129000F50775088600013087000108031D5129F4
:1012A0005229452974087502F100F201F11BF2037D
:1012B0000800F4007408F300F30DF30D21001D087D
:1012C0007306833973069D001D140D30890B662942
:1012D000000021009D149D186E296F296B291C08A0
:1012E000F2001B08F10008002000A000A10177080F
:1012F000F9007908F1007808FA007A08F20020086D
:101300008831C72089310130F90079082000A10710
:1013100080302102031C8D298E297729080088310D
:101320009F2089318D313C25893188317820893160
:1013300088310A2089318831452089318831B220AD
:10134000893188316220893188313D208931893164
:10135000E921893108002000A2007908A0002008B6
:10136000A300C3297708A0002008F1007808A10095
:101370002108F20022088831C7208931013020007D
:10138000A0002008A3077A082302031CC829C92942
:10139000B2290800F501F601711CCF29D029D42902
:1013A0007308F5077408F63D0130F335F40D890B29
:1013B000D5290130F236F10C890BDA297108720453
:1013C000031DE329E429CC297608F2007508F10011
:1013D0000800083023009F0090309D0024309E00BC
:1013E00040309B0003309C000030F1000030F200E0
:1013F0008831182089310030F1000030F200883146
:101400001E2089310030F1000030F20088311220B6
:101410008931FC0108002100D901D90A0130F0000E
:101420007008DC070130F0007008DC055C08031967
:101430001A2A1B2A1E2A22008D16202A22008D120B
:101440002100610862040319262A272A2C2A62082F
:101450008A0061080A008A3127001610080021005E
:10146000D901D90A0130F0007008DA070130F00024
:101470007008DA055A0803193E2A3F2A422A220038
:101480000D16442A22000D1221005D085E04031986
:101490004A2A4B2A502A5E088A005D080A008A31CF
:1014A0002700161108002000A600A401A5016B2A40
:1014B0002308A000A1012008F1002108F20079080A
:1014C000A2002208F3008B316F238A310130200003
:1014D000A4070030A53D24082607A00020088600A8
:1014E000013087000108A1002108A3002308031D83
:1014F0007A2A7B2A582A08002100A300683020009D
:10150000EA006A082100A20023082000EA006A0815
:101510002100A400A501A601A701A80120006708D9
:10152000DF006608DE00A230EA006A08E000A430AE
:101530008A31A5228A312100250823072000EA00EC
:101540006A0886008701810108002000E3005F0827
:10155000E5005E08E4002100C601C701C32A64302B
:10156000E1006108CE006008E2006208CF00630875
:101570008E313B268A3120004E082100C60720000C
:101580004F082100C73D20006408840065088500DD
:101590001200031DCC2ACD2AAF2A210047082000C3
:1015A000DF00210046082000DE00080074087304F4
:1015B000720471040319DD2ADE2A172BFA01FA0AD4
:1015C000EC2A0130F135F20DF30DF40D890BE22A0E
:1015D0000130F9007908FA07F41FEF2AF02AE12A0E
:1015E00074087802031DFE2A73087702031DFE2A81
:1015F00072087602031DFE2A71087502031C012B76
:10160000022B0A2B7108F5027208F63B7308F73BB0
:101610007408F83B0130F436F30CF20CF10C890B32
:101620000B2B0130FA02031D162B172BF02A78081A
:10163000F4007708F3007608F2007508F10008005E
:10164000F4002400951A252B262B6E2B7408F1002C
:10165000F201F135F20DF135F20D573071078400CA
:101660009030723D8500000894007408F100F2018A
:10167000F135F20DF135F20D5630710784009030DE
:10168000723D85000008950096017408F100F20192
:10169000F135F20DF135F20D5830710784009030BC
:1016A000723D8500000892007408F100F201F135E6
:1016B000F20DF135F20D5930710784009030723D12
:1016C00085000008F300F30DF30DF30D21000E0863
:1016D0007306F73973068E00240095160800730808
:1016E0000319732B742B792B7308031D782B792B1B
:1016F0007E2B7108803103208B31BD2B7308033E94
:1017000086008701160001040319872B882BA52B5F
:101710007308033E86008701403FF400413FF50017
:10172000730A86008701403FF600413FF7007708C3
:10173000803AF8007508803A7802031DA12B7408DE
:1017400076020318A42BA52BBD2B7108F400730897
:1017500086008701730A8400850100080107F500EF
:1017600075088600870174088100730A8600870166
:101770000130810741310318810A08002100BD00B2
:10178000A93086000030870014302000ED000030C2
:101790001E00ED0BC82B1D30E6009030E700210045
:1017A0003D082000ED00EE016D08E8006E08E9003C
:1017B000A9308A317C228B31A930F2000030F3004D
:1017C0008831DC208B3144302000E6009030E70087
:1017D0006B08ED00EE016D08E8006E08E900A93025
:1017E0008A317C228B31A930F2000030F30088313D
:1017F000DC208B3131302000E6009030E7006C08AF
:10180000ED00EE016D08E8006E08E900A9308A31AC
:101810007C228B31A930F2000030F3008831DC20CB
:101820008B3108002000AE0021004C1C182C192C14
:10183000222C20002E08FA007A08F90027088A31A5
:1018400053228C312000A91B262C272C2C2C290854
:10185000AD002808AC002E2CAC01AD01AA01AB01F3
:10186000422C2030F1000030F20020002E08FA0057
:101870007A08F3008B316F238C3101302000AA07E6
:101880000030AB3D2B08803AFA002D08803A7A02EE
:10189000031D4C2C2C082A02031C4F2C502C312CDD
:1018A00021004C18542C552C5E2C20002E08FA00D8
:1018B0007A08F90027088A3153228C312000270842
:1018C00089313F218C3120002C087107A7002D0899
:1018D000723DA80008002000A101F81F702C712C97
:1018E000782CF709F809F70A0319F80AA101A10AE7
:1018F000FA1F7B2C7C2C852CF909FA09F90A0319AB
:10190000FA0A0130FB007B08A106A201A3017708B7
:10191000780403198C2C8D2CBC2CA001A00A992CC6
:101920000130F735F80D890B912C0130FB007B0855
:10193000A007F81F9C2C9D2C902C0130A235A30DE4
:10194000890B9E2C78087A02031DA82C770879024F
:10195000031CAB2CAC2CB12C7708F9027808FA3BAD
:1019600022140130F836F70C890BB22C0130A0029A
:10197000031DBB2CBC2C9D2C21080319C02CC12C91
:10198000C62CA209A309A20A0319A30A2308F80076
:101990002208F7000800FB00F701F8010030893148
:1019A00074218C3102302000A3003830A200AD3009
:1019B000890BD82CA20BD82CA30BD82C7B08200089
:1019C000A200A3012208F1002308F2000330F30073
:1019D0000030F4008931CA218C3172088500710809
:1019E0008400013084078430853D00082000A40075
:1019F0002408F7007B08A500A6012508F1002608A9
:101A0000F2000330F3000030F4008931CA218C3138
:101A10007208850071088400023084078430853D97
:101A200000082000A7002708F8007B08A800A901EB
:101A30002808F1002908F2000330F3000030F40018
:101A40008931CA218C317208850071088400003008
:101A500084078430853D0008893174218C3102303F
:101A60002000A3003830A200AD30890B352DA20B29
:101A7000352DA30B352D0800220090018F018C011C
:101A80008D018E010F3021009000FF308C00C73097
:101A90008D00B2308E00FE308F00FE3023008F00AC
:101AA000E0308E0020308D00073090003F308C00F9
:101AB00024008F0190018D018C018E01210095176A
:101AC000250090018C018D018E018F01FF302600D1
:101AD0008C00FF308D00FF308E00FF308F0007300C
:101AE0009000FF3027008C00FF308D00FF308E000B
:101AF000FF308F000F309000161096101611151041
:101B0000951015111414941414150830F1000830B0
:101B1000F200883124208D310930F1000830F200C4
:101B200088312A208D310230F1000030F2008831F6
:101B300030208D318B1514303D00A00011303C0059
:101B4000A4001430A10010303D00A3003C00A80107
:101B500006303D00A8001430A60013303C00A00061
:101B60000800202E3108031DB62DB72DCD2DFF30D6
:101B7000B3003308F700FF30B4003408F800003039
:101B8000893174218D3134302000B300F130890B5C
:101B9000C72DB30BC72D00323A2E0A30A4000030F7
:101BA000A5003208873126278D313A2E3108031DD2
:101BB000DA2DDB2DE82DFF30B3003308F700B43009
:101BC000B4003408F8006430893174218D31C32D9C
:101BD00032088C31CB248D313A2E3108031DF12D82
:101BE000F22DFC2DFF30B3003308F700F801FF3071
:101BF000893174218D31C32DF630A400FF30A5004A
:101C00003208873126278D313A2E3108031D092EDF
:101C10000A2E142EF701FF30B3003308F800FF300E
:101C2000893174218D31C32D3208833191238D3157
:101C30003A2EF701F8010030893174218D31C32D1E
:101C400020003008B300B4013408003A0319292EEB
:101C50003A2E3308003A0319B22D013A0319D62D52
:101C6000033A0319ED2D013A0319052E063A03191B
:101C7000192E3A2E08002000DD004E08860087014C
:101C8000403FD000413FD1005008840051088500FA
:101C90001200253A031D4D2E4E2EF22E4E088600C0
:101CA00087010130810741310318810A2100C801F1
:101CB000C901CC01CD01FF30CA00FF30CB002000AC
:101CC0004E0886008701403FD000413FD1005008B8
:101CD0008400510885001200643A0319702E712E99
:101CE000822E4E0886008701403FD000413FD10040
:101CF00050088400510885001200693A031D812EA6
:101D0000822EBD2E4E0886008701013081074131A9
:101D10000318810A4F0886008701010884008501A5
:101D200002308107003FD000013FD1005008D500AC
:101D30005108D600890D893B8909D700D800D90000
:101D4000DA00DB00DC005508B0005608B100570887
:101D5000B2005808B3005908B4005A08B5005B082F
:101D6000B6005C08B7005D08803115208E31200078
:101D70003108CF003008CE00152F4E0886008701AD
:101D8000403FD000413FD1005008840051088500F9
:101D90001200253A031DCD2ECE2EE72E4E088600CA
:101DA00087010130810741310318810A2530F10094
:101DB0000030F2005D08D0005008F3008B316F2333
:101DC0008E3101302000CE000030CF00152F4E089C
:101DD000860087010130810741310318810ACE0155
:101DE000CF01152F4E0886008701403FD000413FAC
:101DF000D10050088400510885000008D200D301AA
:101E00005208F1005308F2005D08D4005408F300B2
:101E10008B316F238E3120004E0886008701013000
:101E2000810741310318810AE12E0800F3012830AF
:101E3000860000308700473FF100F11F202F212F3F
:101E4000422F2000A809A909AA09AB09AC09AD09CC
:101E5000AE09AF09A80A031D402FA90A031D402F90
:101E6000AA0A031D402FAB0A031D402FAC0A031D15
:101E7000402FAD0A031D402FAE0A031D402FAF0AAD
:101E8000F301F30A2030860000308700473FF1005D
:101E9000F11F4B2F4C2F6B2F2000A009A109A20985
:101EA000A309A409A509A609A709A00A031D6B2F68
:101EB000A10A031D6B2FA20A031D6B2FA30A031D8A
:101EC0006B2FA40A031D6B2FA50A031D6B2FA60AF7
:101ED000031D6B2FA70A20002008210422042304DD
:101EE00024042504260427040319772F782FCB2FE9
:101EF000F201F20A872FA035A10DA20DA30DA40DAA
:101F0000A50DA60DA70D0130F1007108F207A71F5E
:101F10008A2F8B2F7B2F27082F02031DA92F26081E
:101F20002E02031DA92F25082D02031DA92F240809
:101F30002C02031DA92F23082B02031DA92F220801
:101F40002A02031DA92F21082902031DA92F2008F9
:101F50002802031CAC2FAD2FBD2F2008A80221089A
:101F6000A93B2208AA3B2308AB3B2408AC3B25082D
:101F7000AD3B2608AE3B2708AF3BA736A60CA50C09
:101F8000A40CA30CA20CA10CA00C0130F202031DA6
:101F9000CA2FCB2F8B2F73080319CF2FD02FEE2FE3
:101FA000A809A909AA09AB09AC09AD09AE09AF098D
:101FB000A80A031DEE2FA90A031DEE2FAA0A031D6E
:101FC000EE2FAB0A031DEE2FAC0A031DEE2FAD0A58
:101FD000031DEE2FAE0A031DEE2FAF0A20002808C6
:101FE000A0002908A1002A08A2002B08A3002C08A1
:101FF000A4002D08A5002E08A6002F08A7000800A1
:1020000049346E3469346334693461346C3469340E
:102010007A3461346E3464346F34203465346C3413
:102020002034733469347334743465346D346134FA
:102030002E342E342E340A34003453347434613444
:1020400074347534733420344F344E342F344F3459
:10205000463446343A342034253464340A340D345A
:10206000003453347434613474347534733420342C
:1020700041347534643469346F343A34203425344F
:1020800064340A340D340034533474346134743499
:102090007534733420344D346F34643465343A34D9
:1020A0002034253464340A340D34003423340034AD
:0420B00001340034C3
:020000040001F9
:04000E00E43FFF3F8D
:00000001FF
