:020000040000FA
:08000000803102288731F62F40
:1009C20008000800080008000800163021009700FF
:1009D200080085311625843108008531CE25843101
:1009E2000800853171258431080071082000B500A6
:1009F2007008B400080071082000B9007008B8003F
:100A0200080071082000B7007008B60008003830EE
:100A120021009900980122009601080085311625CF
:100A220085312000BA01BA0A0800803021009E00F8
:100A32009F019B019C0101309D000800003085311F
:100A42003E2585317108F5007008F4000230F53654
:100A5200F40C890B282D740808008531CE258531C8
:100A62008531082585318431E62485318531162585
:100A720085318531712585310800F3007308F20054
:100A8200F20DF20D21001D087206833972069D00D7
:100A92001D1421009D149D184F2D502D4C2D1C0806
:100AA200F1001B08F0000800572D702D7408F700A4
:100AB200F8017808003A03195F2D702D7708003A83
:100AC2000319562D013A0319562D033A0319562DCF
:100AD200013A0319562D063A0319702D702D08009C
:100AE200083023009F0080309D0024309E000C308F
:100AF2009B009C010030F0000030F1008431FC24A6
:100B020085310030F0000030F10085310225853159
:100B12000030F0000030F1008431F6248531FD010F
:100B22000800043085313E2585317108F6007008D1
:100B3200F50020003A0803199F2DA02DB22D023096
:100B42007602003003197502031CA82DA92DAD2DC4
:100B5200F40122008D15CC2DF401F40A22008D112E
:100B6200CC2D013076020A30031975020318BA2D12
:100B7200BB2DC42D00307602FF3003197502031815
:100B8200C32DC42DC92DF401F40A22008D11CC2DE0
:100B9200F40122008D1574080800220090018F01D3
:100BA2008C018D018E010F3021009000FF308C00EE
:100BB20087308D00BF308E00FF308F00FF30230062
:100BC2008F00FC308E0020308D00073090003F30C7
:100BD2008C0024008F0190018D018C018E01210077
:100BE2009517250090018C018D018E018F01FF3038
:100BF20026008C00FF308D00FF308E00FF308F000A
:100C020007309000FF3027008C00FF308D00FF304E
:100C12008E00FF308F000F30900014303D00A60090
:100C2200080073087204710470040319192E1A2E35
:100C3200532EF901F90A282E0130F035F10DF20D8B
:100C4200F30D890B1E2E0130F8007808F907F31F07
:100C52002B2E2C2E1D2E73087702031D3A2E72089E
:100C62007602031D3A2E71087502031D3A2E700892
:100C72007402031C3D2E3E2E462E7008F4027108AB
:100C8200F53B7208F63B7308F73B0130F336F20C82
:100C9200F10CF00C890B472E0130F902031D522E84
:100CA200532E2C2E7708F3007608F2007508F10017
:100CB2007408F00008002000A0010D080139F000BE
:100CC200F101F2017008A1007108A2007208A300EC
:100CD2000D0C0139F000F101F2017008A400710855
:100CE200A5007208A6000D0C890C0139F000F10173
:100CF200F2017008A7007108A8007208A90027086D
:100D0200F0002808F1002908F20021082407F30066
:100D12002208253DF4002308263DF5007308F0075C
:100D22007408F13D7508F23D7208710470040319EC
:100D32009B2E9C2E9E2EA001A00A23082204210491
:100D42000319A42EA52EB72E0130F0007008BF079C
:100D52000130F0007008BF053F080319B12EB22E12
:100D6200B52E22008D16B72E22008D1220002608E5
:100D7200250424040319BE2EBF2EC72E0130F00015
:100D82007008BE070330F0007008BE052908280469
:100D920027040319CD2ECE2EE02E0130F00070086C
:100DA200BD070130F0007008BD053D080319DA2EB9
:100DB200DB2EDE2E22000D16E02E22000D12200068
:100DC2002008080085312E2586318431E3248631BE
:100DD2003E30FA007A08F0003D30FB007B08F1005B
:100DE2003F308431E22486318431EA2486318431F1
:100DF200EE24863185310F2586318431E524863112
:100E02008431F224863100302000AF000030AE0081
:100E12000030AD000030AC000030B3000030B20052
:100E22000030B1000030B0000030F3000030F200BA
:100E32002730F1001030F0002F08F7002E08F600DE
:100E42002D08F5002C08F40086311226863173082D
:100E5200720471047004031D2F2F302F3D2F2000C8
:100E62003E08FA007A08F0003D08FB007B08F1001A
:100E72003F088431E12486310030F3000030F20073
:100E82002730F1001030F00020002F08F7002E0864
:100E9200F6002D08F5002C08F40086311226863162
:100EA2007308720471047004031D582F592F602FA8
:100EB200853192258631FA007A082000BA00200096
:100EC2003A080319652F662FD32F2F083302031D0B
:100ED200742F2E083202031D742F2D083102031DB8
:100EE200742F2C0830020318772F782F7F2F86312A
:100EF2005C268631FA007A082000AA002A08031923
:100F0200832F842F9E2FAA013E08FA007A08F00050
:100F12003D08FB007B08F1003F088431E424863160
:100F2200643020002C07B00000302D3DB1000030AD
:100F32002E3DB20000302F3DB3003F080319A22F0F
:100F4200A32FD32F3D080319A72FA82FBA2F85311E
:100F52001F258631FA007A082000AB0080302B0270
:100F6200031CB42FB52FB82F22000D17BA2F220061
:100F72000D1320002F08F3002E08F2002D08F100B7
:100F82002C08F0003E08FA007A08F4003D08FB0045
:100F92007B08F5002B08FC007C08F60085315525FE
:100FA2008631EA2F2F08F3002E08F2002D08F100F7
:100FB2002C08F0000530FA007A08F4003D08FB0026
:100FC2007B08F5002B08FC007C08F60085315525CE
:100FD200863101302000AC070030AD3D0030AE3D1F
:100FE2000030AF3D152F80310228FD012000BB01EA
:0E0FF200BC01BD01BE01BF0120008631E32E0F
:020000040001F9
:04000E00E43FFF3E8E
:00000001FF
