:020000040000FA
:08000000803102288731F62F40
:100A4600080008000800080008001630210097007A
:100A560008008531582585310800863110268531F4
:100A660008008531B3258531080071082000B100E2
:100A76007008B000080071082000B5007008B400C6
:100A8600080071082000B3007008B2000800383072
:100A96002100990098012200960108008531582509
:100AA60085312000B601B60A0800803021009E007C
:100AB6009F019B019C0101309D000800003085319B
:100AC600802585317108F5007008F4000230F5368E
:100AD600F40C890B6A2D74080800863110268531BE
:100AE60085314A2585318531282585318531582539
:100AF60085318531B32585310800F3007308F2008E
:100B0600F20DF20D21001D087206833972069D0052
:100B16001D1421009D149D18912D922D8E2D1C08BB
:100B2600F1001B08F0000800992DB22D7408F7009B
:100B3600F8017808003A0319A12DB22D7708003A7A
:100B46000319982D013A0319982D033A0319982D84
:100B5600013A0319982D063A0319B22DB22D080051
:100B6600083023009F0080309D0024309E000C300A
:100B76009B009C010030F0000030F10085313E25DD
:100B860085310030F0000030F10085314425853193
:100B96000030F0000030F100853138258531FD0147
:100BA600080004308531802585317108F60070080B
:100BB600F500200036080319E12DE22DF42D023050
:100BC6007602003003197502031CEA2DEB2DEF2D7A
:100BD600F40122008D150E2EF401F40A22008D1167
:100BE6000E2E013076020A30031975020318FC2D09
:100BF600FD2D062E00307602FF300319750203180C
:100C0600052E062E0B2EF401F40A22008D110E2E4F
:100C1600F40122008D1574080800220090018F014E
:100C26008C018D018E010F3021009000FF308C0069
:100C3600E7308D00BF308E00FF308F00FF3023007D
:100C46008F00FC308E0038308D00073090003F302A
:100C56008C0024008F0190018D018C018E012100F2
:100C66009517250090018C018D018E018F01FF30B3
:100C760026008C00FF308D00FF308E00FF308F0085
:100C860007309000FF3027008C00FF308D00FF30CA
:100C96008E00FF308F000F30900014303D00A6000C
:100CA6000800730872047104700403195B2E5C2E2D
:100CB600952EF901F90A6A2E0130F035F10DF20D83
:100CC600F30D890B602E0130F8007808F907F31F41
:100CD6006D2E6E2E5F2E73087702031D7C2E720812
:100CE6007602031D7C2E71087502031D7C2E70088A
:100CF6007402031C7F2E802E882E7008F402710861
:100D0600F53B7208F63B7308F73B0130F336F20CFD
:100D1600F10CF00C890B892E0130F902031D942E7B
:100D2600952E6E2E7708F3007608F2007508F1000E
:100D36007408F00008002000A0010D080139F00039
:100D4600F101F2017008A1007108A2007208A30067
:100D56000D0C0139F000F101F2017008A4007108D0
:100D6600A5007208A6000D0C890C0139F000F101EE
:100D7600F2017008A7007108A8007208A9002708E8
:100D8600F0002808F1002908F20021082407F300E2
:100D96002208253DF4002308263DF5007308F007D8
:100DA6007408F13D7508F23D720871047004031968
:100DB600DD2EDE2EE02EA001A00A23082204210447
:100DC6000319E62EE72EEF2E0130F0007008BB0760
:100DD6000130F0007008BB05260825042404031919
:100DE600F52EF62EFE2E0130F0007008BA070330FD
:100DF600F0007008BA052908280427040319042FEF
:100E0600052F0D2F0130F0007008B9070130F000F2
:100E16007008B905200808008531702587318531AD
:100E2600252587313A30FA007A08F0003930FB0080
:100E36007B08F1003B3085312425873185312C250F
:100E46008731853130258731853151258731853187
:100E56002725873185313425873100302000AF00C2
:100E66000030AE000030AD000030AC000030F300C2
:100E76000030F2002730F1001030F00020002F087B
:100E8600F7002E08F6002D08F5002C08F400863130
:100E9600542687317308720471047004031D542F9D
:100EA600552F622F20003A08FA007A08F000390818
:100EB600FB007B08F1003B08853123258731003094
:100EC600F3000030F2002730F1001030F00020006F
:100ED6002F08F7002E08F6002D08F5002C08F40060
:100EE6008631542687317308720471047004031D19
:100EF6007D2F7E2F852F8531D4258731FA007A08FC
:100F06002000B6002000360803198A2F8B2FDC2F0D
:100F160086319E268731FA007A082000AA002A0820
:100F26000319962F972FA32F3A08FA007A08F00094
:100F36003908FB007B08F1003B08853126258731FF
:100F460020003B080319A82FA92FDC2F3908031905
:100F5600AD2FAE2FB82F853161258731FA007A087B
:100F66002000AB0022000D16BA2F22000D12200021
:100F76002F08F3002E08F2002D08F1002C08F000CF
:100F86003A08FA007A08F4003908FB007B08F500F5
:100F96002B08FC007C08F600853197258731013047
:100FA6002000AC070030AD3D0030AE3D0030AF3D17
:100FB600392F2F08F3002E08F2002D08F1002C0817
:100FC600F0000530FA007A08F4003908FB007B08C7
:100FD600F5002B08FC007C08F60085319725873143
:100FE600392F80310228FD012000B701B801B9016F
:0A0FF600BA01BB01200087310F2F64
:020000040001F9
:04000E00E43FFF3E8E
:00000001FF
