:020000040000FA
:08000000803102288731F42F42
:1006C80008000800080008001630210097000800FC
:1006D80083319F23833108008531642583310800E5
:1006E800843178248331080071082000B70070082D
:1006F800B600080071082000BB007008BA000800A6
:1007080071082000B9007008B80008006400800172
:100718000131890B8B2B003483319F2383312000D7
:10072800BE01BE0A0800043020009B009A01911007
:1007380004309C000800803021009E009F019B012E
:100748009C0101309D00080080302C009C00023084
:100758009B0040309A003F3025009E05080070300D
:100768002100990098012200960121001A1FBD2B33
:10077800BE2BB92B08000030843125248331710841
:10078800F5007008F4000230F536F40C890BC82B1C
:100798007408080013303C00A0001430A100103089
:1007A8003D00A300240094012330950001309200FD
:1007B80021008E1124009512080001303E00A5008A
:1007C8000F30A6001030A7001130A800A90105308D
:1007D800AA001030AB000830AC002030AD008030EB
:1007E800A4000800F200700824009100141CFD2BDE
:1007F800FE2BFA2B72089100141C032C042C002CDD
:1008080071089100141C092C0A2C062C0800F4010C
:10081800F501F001F10100308331F6238431013014
:10082800F4070030F53D7508803AF3008030730214
:10083800031D202C08307402031C232C242C0D2C9F
:100848000800F3007308F200F20DF20D21001D08F4
:100858007206833972069D001D140D30890B322CE7
:10086800000021009D149D183A2C3B2C372C1C08A5
:10087800F1001B08F00008008331CE238431853154
:10088800642584318331B3238431833168238431EF
:1008980083319F2384318331E12384318331A82339
:1008A800843183319723843184317824843108005A
:1008B8005E2C772C7408F700F8017808003A0319C1
:1008C800662C772C7708003A03195D2C013A031936
:1008D8005D2C033A03195D2C013A03195D2C063A85
:1008E8000319772C772C0800083023009F008030EC
:1008F8009D0024309E0040309B0003309C00003057
:10090800F0000030F10083317E2384310030F000A4
:100918000030F1008331842384310030F00000304E
:10092800F100833178238431FD01080004308431DB
:10093800252484317108F6007008F50020003E086F
:100948000319A72CA82CB62C023076020030031904
:100958007502031CB02CB12CB32CF401C92CF40182
:10096800F40AC92C013076020A30031975020318FB
:10097800BE2CBF2CB32C00307602FF300319750251
:100988000318C72CC82CB12CB32C740808007308A2
:100998007204710470040319D22CD32C0C2DF901A4
:1009A800F90AE12C0130F035F10DF20DF30D890B48
:1009B800D72C0130F8007808F907F31FE42CE52C50
:1009C800D62C73087702031DF32C72087602031DD8
:1009D800F32C71087502031DF32C70087402031CB4
:1009E800F62CF72CFF2C7008F4027108F53B7208FE
:1009F800F63B7308F73B0130F336F20CF10CF00CC0
:100A0800890B002D0130F902031D0B2D0C2DE52C4F
:100A18007708F3007608F2007508F1007408F00012
:100A28000800F3002400951A1A2D1B2D632D730856
:100A3800F000F101F035F10DF035F10D01307007DE
:100A480084008830713D8500000894007308F00028
:100A5800F101F035F10DF035F10D0030700784002B
:100A68008830713D85000008950096017308F000F4
:100A7800F101F035F10DF035F10D02307007840009
:100A88008830713D8500000892007308F000F1017C
:100A9800F035F10DF035F10D033070078400883022
:100AA800713D85000008F200F20DF20DF20D2100F3
:100AB8000E087206F73972068E0024009516080093
:100AC800220090018F018C018D018E010F302100D1
:100AD8009000FF308C00C7308D00B7308E00FF309B
:100AE8008F00FF3023008F00E4308E008D01073027
:100AF80090003F308C0024008F0190018D018C0103
:100B08008E0121009517250090018C018D018E0121
:100B18008F01FF3026008C00FF308D00FF308E00E3
:100B2800FF308F0007309000FF3027008C00FF3027
:100B38008D00FF308E00FF308F000F309000143092
:100B48003C00A10010303D00A3003C00A801063085
:100B58003D009D001430A60013303C00A0000800A2
:100B68002000A0010D080139F000F101F201700820
:100B7800A1007108A2007208A3000D0C0139F00051
:100B8800F101F2017008A4007108A5007208A6001E
:100B98000D0C890C0139F000F101F2017008A70071
:100BA8007108A8007208A9002708F0002808F100B9
:100BB8002908F20021082407F3002208253DF40043
:100BC8002308263DF5007308F0077408F13D750801
:100BD800F23D7208710470040319F32DF42DF62DFB
:100BE800A001A00A2308220421040319FC2DFD2DCD
:100BF800052E0130F0007008C1070130F0007008C0
:100C0800C10526082504240403190B2E0C2E142EC6
:100C18000130F0007008C0070330F0007008C0050C
:100C280029082804270403191A2E1B2E232E013005
:100C3800F0007008BF070130F0007008BF052008F9
:100C480008008431402486310030853115258631ED
:100C58008331662386314030FA007A08F0003F304D
:100C6800FB007B08F10041308331652386318331F5
:100C78006C2386318331702386318331902386310A
:100C880084310B248631833174238631003020006F
:100C9800B1000030B0000030AF000030AE000030CE
:100CA800B5000030B4000030B3000030B200AB0132
:100CB800AC01F001F101FF308331F6238631FF30BA
:100CC800FA007A08F000F10100308331F62386310A
:100CD800F001FF30FA007A08F10000308331F62382
:100CE8008631FF30FA007A08F000F101FF308331D5
:100CF800F6238631FF30FA007A08F000FF30FB0057
:100D08007B08F10000308331F6238631F001FF3093
:100D1800FA007A08F100FF308331F6238631FF307C
:100D2800FA007A08F000B430FB007B08F100643068
:100D38008331F6238631FF30FA007A08F000FF305D
:100D4800FB007B08F100FF308331F6238631F00188
:100D5800F101FF308331F6238631FF30FA007A083B
:100D6800F000F10100308331F6238631F001FF30C5
:100D7800FA007A08F10000308331F6238631FF301B
:100D8800FA007A08F000F101FF308331F62386314A
:100D9800FF30FA007A08F000FF30FB007B08F10012
:100DA80000308331F6238631F001FF30FA007A08EB
:100DB800F100FF308331F6238631FF30FA007A08DC
:100DC800F000B430FB007B08F10064308331F62377
:100DD8008631FF30FA007A08F000FF30FB007B080C
:100DE800F100FF308331F623863101302000AB0754
:100DF8000030AC3D2C08803AFA0080307A02031D9E
:100E0800072F08302B02031C0A2F0B2F5D2E0030F2
:100E1800F3000030F2002730F1001030F00020001D
:100E28003108F7003008F6002F08F5002E08F40006
:100E38008431CB2486317308720471047004031D55
:100E4800262F272F342F20004008FA007A08F000B8
:100E58003F08FB007B08F100410883316423863199
:100E68000030F3000030F2002730F1001030F000BD
:100E780020003108F7003008F6002F08F5002E088A
:100E8800F4008431CB248631730872047104700431
:100E9800031D4F2F502F572F84319A248631FA0083
:100EA8007A082000BE0020003E0803195C2F5D2F41
:100EB800D12F31083502031D6B2F30083402031D72
:100EC8006B2F2F083302031D6B2F2E0832020318D5
:100ED8006E2F6F2F762F8531B4258631FA007A0868
:100EE8002000AA002A0803197A2F7B2FA12FAA0114
:100EF8004008FA007A08F0003F08FB007B08F10080
:100F08004108833167238631023020002E07B20062
:100F180000302F3DB3000030303DB4000030313D8B
:100F2800B500031022008D1D031403189C2F9F2F5A
:100F380022008D15A12F22008D11200041080319D0
:100F4800A62FA72FD12F3F080319AB2FAC2FB62FF1
:100F58008331BF238631FA007A082000AD002200D1
:100F68000D16B82F22000D1220003108F3003008AA
:100F7800F2002F08F1002E08F0004008FA007A0865
:100F8800F4003F08FB007B08F5002D08FC007C08F6
:100F9800F60084315C248631E82F3108F3003008EC
:100FA800F2002F08F1002E08F0000530FA007A0848
:100FB800F4003F08FB007B08F5002D08FC007C08C6
:100FC800F60084315C24863101302000AE07003001
:100FD800AF3D0030B03D0030B13D5B2E803102287E
:100FE800FD013230840000308500103083318A23BF
:100FF800873120008631252E233400340134003413
:020000040001F9
:04000E00E43FFF3F8D
:00000001FF
