:020000040000FA
:08000000803102288731F42F42
:1007EE0008000800080008001630210097000800D5
:1007FE008431322483310800863105268431080085
:10080E0085310E258431080071082000A50070087E
:10081E00A400080071082000A9007008A8000800B4
:10082E0071082000A7007008A6000800640080016F
:10083E000131890B1E2C0034843132248431200086
:10084E00AC01AC0A0800043020009B009A01911004
:10085E0004309C000800803021009E009F019B0107
:10086E009C0101309D00080080302C009C0002305D
:10087E009B0040309A003F3025009E0508007030E6
:10088E002100990098012200960121001A1F502C78
:10089E00512C4C2C0800003084319E248431710878
:1008AE00F5007008F4000230F536F40C890B5B2C61
:1008BE007408080013303C00A0001430A100103062
:1008CE003D00A300240094012330950001309200D6
:1008DE0021008E1124009512080001303E00A50063
:1008EE000F30A6001030A7001130A800A901053066
:1008FE00AA001030AB000830AC002030AD008030C4
:10090E00A4000800F200700824009100141C902C22
:10091E00912C8D2C72089100141C962C972C932CD4
:10092E0071089100141C9C2C9D2C992C0800F3002E
:10093E007308F200F20DF20D21001D0872068339C4
:10094E0072069D001D140D30890BAB2C000021008A
:10095E009D149D18B32CB42CB02C1C08F1001B0850
:10096E00F0000800843161248431863105268431FB
:10097E008431462484318331FB2384318431322403
:10098E00843184317424843184313B248431843124
:10099E002A24843185310E2584310800D72CF02C81
:1009AE007408F700F8017808003A0319DF2CF02CD0
:1009BE007708003A0319D62C013A0319D62C033ABC
:1009CE000319D62C013A0319D62C063A0319F02C2A
:1009DE00F02C0800F401F501FF30F3007308F0006D
:1009EE00F10100308431892484310130F407003064
:1009FE00F53D7508803AF30080307302031D092D12
:100A0E0040307402031C0C2D0D2DF32C0800083001
:100A1E0023009F0080309D0024309E0040309B00BC
:100A2E0003309C000030F0000030F10084311124BE
:100A3E0085310030F0000030F1008431172485310B
:100A4E000030F0000030F10084310B248531FD01BF
:100A5E000800043084319E2485317108F600700838
:100A6E00F50020002C0803193D2D3E2D502D02308F
:100A7E007602003003197502031C462D472D4B2DAF
:100A8E00F40122008D156A2DF401F40A22008D1155
:100A9E006A2D013076020A30031975020318582D9B
:100AAE00592D622D00307602FF300319750203189E
:100ABE00612D622D672DF401F40A22008D116A2D2D
:100ACE00F40122008D157408080073087204710475
:100ADE0070040319732D742DAD2DF901F90A822DB1
:100AEE000130F035F10DF20DF30D890B782D01303B
:100AFE00F8007808F907F31F852D862D772D7308DA
:100B0E007702031D942D72087602031D942D710831
:100B1E007502031D942D70087402031C972D982DD9
:100B2E00A02D7008F4027108F53B7208F63B7308AD
:100B3E00F73B0130F336F20CF10CF00C890BA12DC2
:100B4E000130F902031DAC2DAD2D862D7708F30073
:100B5E007608F2007508F1007408F0000800F30042
:100B6E002400951ABB2DBC2D042E7308F000F10144
:100B7E00F035F10DF035F10D01307007840088303D
:100B8E00713D8500000894007308F000F101F03506
:100B9E00F10DF035F10D0030700784008830713D95
:100BAE0085000008950096017308F000F101F035FC
:100BBE00F10DF035F10D0230700784008830713D73
:100BCE008500000892007308F000F101F035F10D78
:100BDE00F035F10D0330700784008830713D8500CB
:100BEE000008F200F20DF20DF20D21000E08720651
:100BFE00F73972068E002400951608002200900127
:100C0E008F018C018D018E010F3021009000FF307D
:100C1E008C0087308D00B7308E00FE308F00FE3096
:100C2E0023008F00E4308E0020308D0007309000BE
:100C3E003F308C0024008F0190018D018C018E01BC
:100C4E0021009517250090018C018D018E018F01D9
:100C5E00FF3026008C00FF308D00FF308E00FF30FD
:100C6E008F0007309000FF3027008C00FF308D0082
:100C7E00FF308E00FF308F000F30900014303C009C
:100C8E00A10010303D00A3003C00A80106303D003D
:100C9E00A8001430A60013303C00A000080020006D
:100CAE00B0010D080139F000F101F2017008B10038
:100CBE007108B2007208B3000D0C0139F000F10199
:100CCE00F2017008B4007108B5007208B6000D0C80
:100CDE00890C0139F000F101F2017008B7007108BA
:100CEE00B8007208B9003708F0003808F10039086A
:100CFE00F20031083407F3003208353DF4003308B2
:100D0E00363DF5007308F0077408F13D7508F23DA5
:100D1E007208710470040319952E962E982EB00148
:100D2E00B00A33083204310403199E2E9F2EB12EC1
:100D3E000130F0007008AF070130F0007008AF0509
:100D4E002F080319AB2EAC2EAF2E22008D16B12E0E
:100D5E0022008D1220003608350434040319B82EF3
:100D6E00B92EC12E0130F0007008AE070330F0002E
:100D7E007008AE053908380437040319C72EC82E7B
:100D8E00DA2E0130F0007008AD070130F000700867
:100D9E00AD052D080319D42ED52ED82E22000D16F2
:100DAE00DA2E22000D122000300808008431B924FA
:100DBE00863100308531B62586318331F92386316F
:100DCE002E30FA007A08F0002D30FB007B08F1007F
:100DDE002F308331F82386318331FF2386318431DE
:100DEE00032486318431232486318431F1248631E3
:100DFE0084310724863100302000BF000030BE0051
:100E0E000030BD000030BC000030A3000030A20056
:100E1E000030A1000030A0000030F3000030F200DE
:100E2E002730F1001030F0003F08F7003E08F600C2
:100E3E003D08F5003C08F40085316C2586317308B9
:100E4E00720471047004031D2D2F2E2F3B2F2000D2
:100E5E002E08FA007A08F0002D08FB007B08F1003E
:100E6E002F088331F72386310030F3000030F20073
:100E7E002730F1001030F00020003F08F7003E0848
:100E8E00F6003D08F5003C08F40085316C258631EE
:100E9E007308720471047004031D562F572F5E2FB2
:100EAE00853130258631FA007A082000AC0020000A
:100EBE002C080319632F642FD12F3F082302031D23
:100ECE00722F3E082202031D722F3D082102031DC0
:100EDE00722F3C0820020318752F762F7D2F863136
:100EEE0056268631FA007A082000BA003A0803190D
:100EFE00812F822F9C2FBA012E08FA007A08F0005B
:100F0E002D08FB007B08F1002F088331FA23863170
:100F1E00643020003C07A00000303D3DA1000030B1
:100F2E003E3DA20000303F3DA3002F080319A02F25
:100F3E00A12FD12F2D080319A52FA62FB82F84313D
:100F4E0052248631FA007A082000BB0080303B0222
:100F5E00031CB22FB32FB62F22000D17B82F22006D
:100F6E000D1320003F08F3003E08F2003D08F1008B
:100F7E003C08F0002E08FA007A08F4002D08FB0059
:100F8E007B08F5003B08FC007C08F6008431D52474
:100F9E008631E82F3F08F3003E08F2003D08F100CD
:100FAE003C08F0000530FA007A08F4002D08FB002A
:100FBE007B08F5003B08FC007C08F6008431D52444
:100FCE00863101302000BC070030BD3D0030BE3DF3
:100FDE000030BF3D132F80310228FD0120308400E8
:100FEE0000308500103084311D2487312000863179
:0A0FFE00DD2E2334003401340034EA
:020000040001F9
:04000E00E43FFF3F8D
:00000001FF
