:020000040000FA
:08000000803102288731F52F41
:1007EC000800080008000800080008001630210066
:1007FC009700080084313224843108008531592552
:10080C008431080084319F24843108007108210050
:10081C00A1007008A000080071082000EE0070080C
:10082C00ED00080071082000EC007008EB000800D7
:10083C00640080010131890B1F2C003438302100F9
:10084C0099009801220096010800843132248431E9
:10085C002000EF01EF0A0800803021009E009F016C
:10086C009B019C0101309D000800003084316C24F8
:10087C0084317108F5007008F4000230F536F40C80
:10088C00890B442C74080800853159258431843136
:10089C00242484318331FC23843184313224843107
:1008AC0084319F24843108005A302000DA005A0821
:1008BC00DD005908FC005808FB005D30DA005A08CE
:1008CC00FD0000308431C12484310800F30073082A
:1008DC00F200F20DF20D21001D087206833972062A
:1008EC009D001D1421009D149D187D2C7E2C7A2CAE
:1008FC001C08F1001B08F0000800852C9E2C7408C5
:10090C00F700F8017808003A03198D2C9E2C770813
:10091C00003A0319842C013A0319842C033A031965
:10092C00842C013A0319842C063A03199E2C9E2C14
:10093C000800083023009F0080309D0024309E006A
:10094C000C309B009C010030F0000030F100843131
:10095C00122484310030F0000030F100843118246E
:10096C0084310030F0000030F10084310C248431EB
:10097C002000CA0108002000D5007C08D7007B08A5
:10098C00D600C001C101DB2C5630D3005308F8004F
:10099C007D08D4005408F900550886315826843156
:1009AC0078082000C0077908C13D56088400570814
:1009BC0085001200031DE32CE42CCA2C4108FC001A
:1009CC004008FB000800043084316C248431710829
:1009DC00F6007008F50020006F080319F62CF72CB0
:1009EC00052D02307602003003197502031CFF2C12
:1009FC00002D022DF401182DF401F40A182D0130EC
:100A0C0076020A300319750203180D2D0E2D022DD6
:100A1C0000307602FF30031975020318162D172DBE
:100A2C00002D022D74080800720803191E2D1F2DAD
:100A3C00242D7208031D232D242D292D700883319C
:100A4C00FB238531582D7208033E86008701160062
:100A5C0001040319322D332D502D7208033E8600EC
:100A6C008701403FF300413FF400720A8600870182
:100A7C00403FF500413FF6007608803AF7007408D5
:100A8C00803A7702031D4C2D7308750203184F2D05
:100A9C00502D582D720A8600870101308107413193
:100AAC000318810A0800220090018F018C018D012E
:100ABC008E010F3021009000FF308C00E7308D004C
:100ACC00BF308E00FF308F00FF3023008F00FC30D2
:100ADC008E0038308D00073090003F308C002400A1
:100AEC008F0190018D018C018E012100951725003D
:100AFC0090018C018D018E018F01FF3026008C003E
:100B0C00FF308D00FF308E00FF308F0007309000DB
:100B1C00FF3027008C00FF308D00FF308E00FF303F
:100B2C008F000F30900014303D00A60008007308B1
:100B3C007204710470040319A42DA52DDE2DF90186
:100B4C00F90AB32D0130F035F10DF20DF30D890BCF
:100B5C00A92D0130F8007808F907F31FB62DB72D31
:100B6C00A82D73087702031DC52D72087602031D8C
:100B7C00C52D71087502031DC52D70087402031C68
:100B8C00C82DC92DD12D7008F4027108F53B7208DF
:100B9C00F63B7308F73B0130F336F20CF10CF00C1A
:100BAC00890BD22D0130F902031DDD2DDE2DB72D61
:100BBC007708F3007608F2007508F1007408F0006D
:100BCC0008002000CE010D080139F000F101F201FE
:100BDC007008CF007108D0007208D1000D0C0139DB
:100BEC00F000F101F2017008D2007108D300720814
:100BFC00D4000D0C890C0139F000F101F2017008E0
:100C0C00D5007108D6007208D7005508F0005608B8
:100C1C00F1005708F2004F085207F3005008533DFB
:100C2C00F4005108543DF5007308F0077408F13DC9
:100C3C007508F23D7208710470040319262E272ED4
:100C4C00292ECE01CE0A510850044F0403192F2E21
:100C5C00302E382E0130F0007008CD070130F00036
:100C6C007008CD0554085304520403193E2E3F2E30
:100C7C00472E0130F0007008CC070330F0007008EC
:100C8C00CC0557085604550403194D2E4E2E562EDE
:100C9C000130F0007008CB070130F0007008CB0574
:100CAC004E080800FA00780886008701403F2000B3
:100CBC00CE00413FCF004E0884004F088500120043
:100CCC00253A031D6A2E6B2EAF2E780886008701FD
:100CDC000130810741310318810AC201C301C601E9
:100CEC00C701FF30C400FF30C500780886008701BB
:100CFC00403FCE00413FCF004E0884004F08850096
:100D0C001200253A031D8B2E8C2EA42E78088600FB
:100D1C0087010130810741310318810A2530F00029
:100D2C000030F1007A08CE004E08F20085311A2509
:100D3C0086310130F8000030F900D12E7808860099
:100D4C0087010130810741310318810AF801F9014B
:100D5C00D12E780886008701403FCE00413FCF005E
:100D6C004E0884004F0885000008D000D1015008BF
:100D7C00F0005108F1007A08D2005208F2008531D7
:100D8C001A258631780886008701013081074131A8
:100D9C000318810A9F2E080084314A24863183313E
:100DAC00F82386314C302000DE005E08F0004B301A
:100DBC00DF005F08F1004D308331F7238631843139
:100DCC000024863184310424863184312B248631ED
:100DDC008331FA2386318431082486310030200097
:100DEC00E6000030E5000030E4000030E3000030A5
:100DFC00EA000030E9000030E8000030E700003085
:100E0C00D8008830D90084315A2486310030F30060
:100E1C000030F2002730F1001030F000200066089E
:100E2C00F7006508F6006408F5006308F4008531E6
:100E3C009D2586317308720471047004031D272FDD
:100E4C00282F352F20004C08DE005E08F0004B08E0
:100E5C00DF005F08F1004D088331F6238631003046
:100E6C00F3000030F2002730F1001030F0002000C9
:100E7C006608F7006508F6006408F5006308F400DE
:100E8C0085319D2586317308720471047004031D2D
:100E9C00502F512F582F8431E92486312000DE0049
:100EAC005E08EF0020006F0803195D2F5E2FD22F14
:100EBC0066086A02031D6C2F65086902031D6C2FFE
:100ECC0064086802031D6C2F6308670203186F2FF8
:100EDC00702F772F8531E72586312000DE005E08E4
:100EEC00E100610803197B2F7C2FA22FE1014C0834
:100EFC00DE005E08F0004B08DF005F08F1004D08D3
:100F0C008331F9238631023020006307E70000307B
:100F1C00643DE8000030653DE9000030663DEA00C4
:100F2C00031022008D1D031403189D2FA02F2200E7
:100F3C008D15A22F22008D1120004D080319A72F0B
:100F4C00A82FD22F4B080319AC2FAD2FB72F8431FC
:100F5C003B2486312000DE005E08E20022000D16E4
:100F6C00B92F22000D1220006608F3006508F2006C
:100F7C006408F1006308F0004C08DE005E08F40021
:100F8C004B08DF005F08F5006208E0006008F6001F
:100F9C00843183248631E92F6608F3006508F2005A
:100FAC006408F1006308F0000530DE005E08F40010
:100FBC004B08DF005F08F5006208E0006008F600EF
:100FCC0084318324863101302000E3070030E43D76
:100FDC000030E53D0030E63D052F80310228203001
:100FEC008400003085002E3084311E24873120008F
:0E0FFC008631D22E68346F346C346134003488
:020000040001F9
:04000E00E43FFF3E8E
:00000001FF
