:020000040000FA
:08000000803102288731F42F42
:1008F60008000800080008001630210097000800CC
:100906008431B6248431080086312C2684310800CF
:1009160085318F258431080071082000A5007008F4
:10092600A400080071082000A9007008A8000800AB
:1009360071082000A7007008A60008006400800166
:100946000131890BA22C00348431B6248431200075
:10095600AC01AC0A0800043020009B009A019110FB
:1009660004309C000800803021009E009F019B01FE
:100976009C0101309D00080080302C009C00023054
:100986009B0040309A003F3025009E0508007030DD
:100996002100990098012200960121001A1FD42CEB
:1009A600D52CD02C0800003085313C2584317108C7
:1009B600F5007008F4000230F536F40C890BDF2CD4
:1009C6007408080013303C00A0001430A100103059
:1009D6003D00A300240094012330950001309200CD
:1009E60021008E1124009512080001303E00A5005A
:1009F6000F30A6001030A7001130A800A90105305D
:100A0600AA001030AB000830AC002030AD008030BA
:100A1600A4000800F200700824009100141C142D94
:100A2600152D112D72089100141C1A2D1B2D172D32
:100A360071089100141C202D212D1D2D0800F40194
:100A4600F501F001F101003085310D2585310130C8
:100A5600F4070030F53D7508803AF30080307302E4
:100A6600031D372D08307402031C3A2D3B2D242D0F
:100A76000800F3007308F200F20DF20D21001D08C4
:100A86007206833972069D001D140D30890B492D9F
:100A9600000021009D149D18512D522D4E2D1C082D
:100AA600F1001B08F00008008431E5248531863109
:100AB6002C2685318431CA24853184317F248531C1
:100AC6008431B62485318431F82485318431BF24BC
:100AD60085318431AE24853185318F2585310800F5
:100AE600752D8E2D7408F700F8017808003A031961
:100AF6007D2D8E2D7708003A0319742D013A0319BE
:100B0600742D033A0319742D013A0319742D063A0C
:100B160003198E2D8E2D0800083023009F0080308B
:100B26009D0024309E0040309B0003309C00003026
:100B3600F0000030F1008431952485310030F0005A
:100B46000030F10084319B2485310030F000003004
:100B5600F10084318F248531FD0108000430853190
:100B66003C2585317108F6007008F50020002C0838
:100B76000319BE2DBF2DCD2D02307602003003198C
:100B86007502031CC72DC82DCA2DF401E02DF401F2
:100B9600F40AE02D013076020A30031975020318B3
:100BA600D52DD62DCA2D00307602FF3003197502D9
:100BB6000318DE2DDF2DC82DCA2D74080800730812
:100BC6007204710470040319E92DEA2D232EF9012C
:100BD600F90AF82D0130F035F10DF20DF30D890B00
:100BE600EE2D0130F8007808F907F31FFB2DFC2DD8
:100BF600ED2D73087702031D0A2E72087602031D77
:100C06000A2E71087502031D0A2E70087402031C51
:100C16000D2E0E2E162E7008F4027108F53B720882
:100C2600F63B7308F73B0130F336F20CF10CF00C8F
:100C3600890B172E0130F902031D222E232EFC2DBF
:100C46007708F3007608F2007508F1007408F000E2
:100C56000800220090018F018C018D018E010F305A
:100C660021009000FF308C00C7308D00B7308E0019
:100C7600FF308F00FF3023008F00E4308E008D019F
:100C8600073090003F308C0024008F0190018D01C9
:100C96008C018E0121009517250090018C018D0194
:100CA6008E018F01FF3026008C00FF308D00FF3053
:100CB6008E00FF308F0007309000FF3027008C0039
:100CC600FF308D00FF308E00FF308F000F30900018
:100CD60014303C00A10010303D00A3003C00A801E8
:100CE60006303D009D001430A60013303C00A000E5
:100CF60008002000B0010D080139F000F101F201F1
:100D06007008B1007108B2007208B3000D0C013909
:100D1600F000F101F2017008B4007108B500720824
:100D2600B6000D0C890C0139F000F101F2017008D2
:100D3600B7007108B8007208B9003708F000380823
:100D4600F1003908F20031083407F3003208353D66
:100D5600F4003308363DF5007308F0077408F13DDA
:100D66007508F23D7208710470040319BB2EBC2E7F
:100D7600BE2EB001B00A3308320431040319C42E62
:100D8600C52ECD2E0130F0007008AF070130F000FF
:100D96007008AF053608350434040319D32ED42E53
:100DA600DC2E0130F0007008AE070330F00070084A
:100DB600AE053908380437040319E22EE32EEB2E6C
:100DC6000130F0007008AD070130F0007008AD0585
:100DD6003008080085315725863184317D248631D7
:100DE6002E30FA007A08F0002D30FB007B08F10067
:100DF6002F3084317C2486318431832486318431BA
:100E0600872486318431A72486318531222586318F
:100E160084318B24863100302000BF000030BE00B4
:100E26000030BD000030BC000030A3000030A2003E
:100E36000030A1000030A0000030F3000030F200C6
:100E46002730F1001030F0003F08F7003E08F600AA
:100E56003D08F5003C08F4008531E225863173082B
:100E6600720471047004031D392F3A2F472F200096
:100E76002E08FA007A08F0002D08FB007B08F10026
:100E86002F0884317B2486310030F3000030F200D5
:100E96002730F1001030F00020003F08F7003E0830
:100EA600F6003D08F5003C08F4008531E225863160
:100EB6007308720471047004031D622F632F6A2F76
:100EC6008531B1258631FA007A082000AC00200071
:100ED6002C0803196F2F702FD12F3F082302031DF3
:100EE6007E2F3E082202031D7E2F3D082102031D90
:100EF6007E2F3C0820020318812F822F892F8631EE
:100F06007C268631FA007A082000BA003A080319CE
:100F16008D2F8E2FA82FBA012E08FA007A08F0001E
:100F26002D08FB007B08F1002F0884317E248631D2
:100F3600023020003C07A00000303D3DA1000030FB
:100F46003E3DA20000303F3DA3002F080319AC2F01
:100F5600AD2FD12F2D080319B12FB22FB92F843100
:100F6600D6248631FA007A082000BB003F08F30039
:100F76003E08F2003D08F1003C08F0002E08FA0099
:100F86007A08F4002D08FB007B08F5003B08FC00FE
:100F96007C08F600853173258631E82F3F08F3007B
:100FA6003E08F2003D08F1003C08F0000530FA006A
:100FB6007A08F4002D08FB007B08F5003B08FC00CE
:100FC6007C08F60085317325863101302000BC0788
:100FD6000030BD3D0030BE3D0030BF3D1F2F80318B
:100FE6000228FD0120308400003085001030843155
:100FF600A124873120008631ED2E233400340134BC
:021006000034B4
:020000040001F9
:04000E00E43FFF3F8D
:00000001FF
