:020000040000FA
:08000000803102288731F62F40
:100A1E0008000800080008000800163021009700A2
:100A2E00080085314425853108008531FC25853146
:100A3E00080085319F258531080071082000B1001E
:100A4E007008B000080071082000B5007008B400EE
:100A5E00080071082000B3007008B200080038309A
:100A6E002100990098012200960108008531442545
:100A7E0085312000B601B60A0800803021009E00A4
:100A8E009F019B019C0101309D00080000308531C3
:100A9E006C2585317108F5007008F4000230F536CA
:100AAE00F40C890B562D740808008531FC25853110
:100ABE00853136258531853114258531853144259D
:100ACE00853185319F2585310800F3007308F200CA
:100ADE00F20DF20D21001D087206833972069D007B
:100AEE001D1421009D149D187D2D7E2D7A2D1C0820
:100AFE00F1001B08F0000800852D9E2D7408F700EC
:100B0E00F8017808003A03198D2D9E2D7708003ACA
:100B1E000319842D013A0319842D033A0319842DE8
:100B2E00013A0319842D063A03199E2D9E2D0800B5
:100B3E00083023009F0080309D0024309E000C3032
:100B4E009B009C010030F0000030F10085312A2519
:100B5E0085310030F0000030F100853130258531CF
:100B6E000030F0000030F100853124258531FD0183
:100B7E000800043085316C2585317108F600700847
:100B8E00F500200036080319CD2DCE2DE02D0230B4
:100B9E007602003003197502031CD62DD72DDB2DDE
:100BAE00F40122008D15FA2DF401F40A22008D11A4
:100BBE00FA2D013076020A30031975020318E82D5A
:100BCE00E92DF22D00307602FF300319750203185D
:100BDE00F12DF22DF72DF401F40A22008D11FA2DCC
:100BEE00F40122008D1574080800220090018F0177
:100BFE008C018D018E010F3021009000FF308C0092
:100C0E00E7308D00BF308E00FF308F00FF302300A5
:100C1E008F00FC308E0038308D00073090003F3052
:100C2E008C0024008F0190018D018C018E0121001A
:100C3E009517250090018C018D018E018F01FF30DB
:100C4E0026008C00FF308D00FF308E00FF308F00AD
:100C5E0007309000FF3027008C00FF308D00FF30F2
:100C6E008E00FF308F000F30900014303D00A60034
:100C7E00080073087204710470040319472E482E7D
:100C8E00812EF901F90A562E0130F035F10DF20DD3
:100C9E00F30D890B4C2E0130F8007808F907F31F7D
:100CAE00592E5A2E4B2E73087702031D682E72088A
:100CBE007602031D682E71087502031D682E7008DA
:100CCE007402031C6B2E6C2E742E7008F4027108C5
:100CDE00F53B7208F63B7308F73B0130F336F20C26
:100CEE00F10CF00C890B752E0130F902031D802ECC
:100CFE00812E5A2E7708F3007608F2007508F1005F
:100D0E007408F00008002000A0010D080139F00061
:100D1E00F101F2017008A1007108A2007208A3008F
:100D2E000D0C0139F000F101F2017008A4007108F8
:100D3E00A5007208A6000D0C890C0139F000F10116
:100D4E00F2017008A7007108A8007208A900270810
:100D5E00F0002808F1002908F20021082407F3000A
:100D6E002208253DF4002308263DF5007308F00700
:100D7E007408F13D7508F23D720871047004031990
:100D8E00C92ECA2ECC2EA001A00A230822042104AB
:100D9E000319D22ED32EE52E031022000D1E03149E
:100DAE000318DA2EDD2E22000D16DF2E22000D1274
:100DBE000130F00070082000BB07BB012608250497
:100DCE0024040319EB2EEC2E012F031022000D1E0E
:100DDE0003140318F32EF62E22000D16F82E220001
:100DEE000D120130F00070082000BA070330F00039
:100DFE007008BA052908280427040319072F082F9D
:100E0E000D2F0130F0007008B907B9012008080055
:100E1E0085315C2587318531112587313A30FA00CD
:100E2E007A08F0003930FB007B08F1003B30853149
:100E3E001025873185311825873185311C2587315D
:100E4E0085313D2587318531132587318531202523
:100E5E00873100302000AF000030AE000030AD0012
:100E6E000030AC000030F3000030F2002730F1000B
:100E7E001030F00020002F08F7002E08F6002D0885
:100E8E00F5002C08F4008631402687317308720471
:100E9E0071047004031D542F552F622F20003A0841
:100EAE00FA007A08F0003908FB007B08F1003B08D5
:100EBE0085310F2587310030F3000030F2002730E6
:100ECE00F1001030F00020002F08F7002E08F60079
:100EDE002D08F5002C08F400863140268731730862
:100EEE00720471047004031D7D2F7E2F852F8531B2
:100EFE00C0258731FA007A082000B6002000360897
:100F0E0003198A2F8B2FDC2F86318A268731FA0020
:100F1E007A082000AA002A080319962F972FA32FCC
:100F2E003A08FA007A08F0003908FB007B08F10055
:100F3E003B0885311225873120003B080319A82F65
:100F4E00A92FDC2F39080319AD2FAE2FB82F8531FD
:100F5E004D258731FA007A082000AB0022000D16CD
:100F6E00BA2F22000D1220002F08F3002E08F200D7
:100F7E002D08F1002C08F0003A08FA007A08F40067
:100F8E003908FB007B08F5002B08FC007C08F600F6
:100F9E0085318325873101302000AC070030AD3D0F
:100FAE000030AE3D0030AF3D392F2F08F3002E0834
:100FBE00F2002D08F1002C08F0000530FA007A0836
:100FCE00F4003908FB007B08F5002B08FC007C08B8
:100FDE00F600853183258731392F80310228FD01B6
:100FEE002000B701B801B901BA01BB012000873159
:020FFE000F2FB3
:020000040001F9
:04000E00E43FFF3E8E
:00000001FF
