:020000040000FA
:10000000803102288731002F080008000800F20024
:10001000700824009100141C0E280F280B28720869
:100020009100141C14281528112871089100141C23
:100030001A281B281728080004308F316A278031BE
:100040007108F6007008F50020003E080319292801
:100050002A283C2802307602003003197502031C5E
:10006000322833283728F40122008D155628F40150
:10007000F40A22008D115628013076020A30031945
:1000800075020318442845284E2800307602FF30B8
:100090000319750203184D284E285328F401F40A59
:1000A00022008D115628F40122008D1574080800D5
:1000B000730872047104700403195F28602899287A
:1000C000F901F90A6E280130F035F10DF20DF30D4A
:1000D000890B64280130F8007808F907F31F7128AC
:1000E0007228632873087702031D8028720876023D
:1000F000031D802871087502031D80287008740292
:10010000031C832884288C287008F4027108F53BAE
:100110007208F63B7308F73B0130F336F20CF10C32
:10012000F00C890B8D280130F902031D98289928BD
:1001300072287708F3007608F2007508F100740859
:10014000F0000800F3002400951AA728A828F0283A
:100150007308F000F101F035F10DF035F10D0130CB
:10016000700784009030713D85000008940073088A
:10017000F000F101F035F10DF035F10D00307007B0
:1001800084009030713D8500000895009601730849
:10019000F000F101F035F10DF035F10D023070078E
:1001A00084009030713D8500000892007308F000D3
:1001B000F101F035F10DF035F10D033070078400D9
:1001C0009030713D85000008F200F20DF20DF20D45
:1001D00021000E087206F73972068E00240095166B
:1001E0000800220090018F018C018D018E010F30DB
:1001F00021009000FF308C0087308D00B7308E00DA
:10020000FE308F00FE3023008F00E4308E0020305F
:100210008D00073090003F308C0024008F0190014A
:100220008D018C018E0121009517250090018C0114
:100230008D018E018F01FF3026008C00FF308D0074
:10024000FF308E00FF308F0007309000FF30270016
:100250008C00FF308D00FF308E00FF308F000F309C
:10026000900014303C00A10010303D00A3003C0081
:10027000A80106303D00A8001430A60013303C0051
:10028000A00008007B295408031D47294829492953
:1002900095290A30C7000030C80055088731192752
:1002A000813195295408031D562957295829952924
:1002B00055088131F621813195295408031D6129A2
:1002C0006229632995290A30C7000030C800550803
:1002D00087311927813195295408031D7029712907
:1002E00072299529F630C700FF30C80055088731BC
:1002F00019278131952920005308D600D7015708C6
:10030000003A0319842995295608003A031943290C
:10031000013A03195229033A03195D29013A0319D5
:100320006C29063A03199529952908002000C40173
:10033000F71F9B299C29A329F609F709F60A031937
:10034000F70AC401C40AF91FA629A729B029F80988
:10035000F909F80A0319F90A0130FA007A08C40603
:10036000C501C601760877040319B729B829E7291A
:10037000C301C30AC4290130F635F70D890BBC2926
:100380000130FA007A08C307F71FC729C829BB291B
:100390000130C535C60D890BC92977087902031DBF
:1003A000D32976087802031CD629D729DC297608B8
:1003B000F8027708F93B45140130F736F60C890B43
:1003C000DD290130C302031DE629E729C8294408B5
:1003D0000319EB29EC29F129C509C609C50A031936
:1003E000C60A4608F7004508F6000800FC00F601BA
:1003F000F70100308F315127813134302000C300A4
:10040000F130890B012AC30B012A00327C0820003D
:10041000C300C4014308F0004408F1000330F200B7
:100420000030F3008F31BE278131710885007008DC
:100430008400013084078430853D00082000C50019
:100440004508F6007C08C600C7014608F0004708CA
:10045000F1000330F2000030F3008F31BE2781310C
:100460007108850070088400023084078430853D5F
:1004700000082000C8004808F7007C08C900CA012D
:100480004908F0004A08F1000330F2000030F300A0
:100490008F31BE27813171088500700884000030DB
:1004A00084078430853D00088F31512781313430F5
:1004B0002000C300F130890B5B2AC30B5B2A00329A
:1004C00008002000C3010D080139F000F101F2011C
:1004D0007008C4007108C5007208C6000D0C01390F
:1004E000F000F101F2017008C7007108C80072083D
:1004F000C9000D0C890C0139F000F101F2017008FE
:10050000CA007108CB007208CC004A08F0004B0802
:10051000F1004C08F20044084707F3004508483D45
:10052000F4004608493DF5007308F0077408F13DF2
:100530007508F23D7208710470040319A02AA12AFB
:10054000A32AC301C30A4608450444040319A92A7F
:10055000AA2ABC2A0130F0007008C2070130F0005E
:100560007008C20542080319B62AB72ABA2A22001F
:100570008D16BC2A22008D12200049084804470429
:100580000319C32AC42ACC2A0130F0007008C1071D
:100590000330F0007008C1054C084B044A040319ED
:1005A000D22AD32AE52A0130F0007008C0070130B2
:1005B000F0007008C00540080319DF2AE02AE32A8A
:1005C00022000D16E52A22000D1220004308080023
:1005D0008F318527823100308031A22082318031F5
:1005E0000520823141302000D8005808F00040300A
:1005F000D9005908F10042308031042082318E3117
:10060000B72682318E31BB2682318E31D52682319A
:100610008E31ED2682318E31BF26823100302000AE
:10062000E0000030DF000030DE000030DD00003090
:10063000B3000030B2000030B1000030B000003034
:10064000F3000030F2000030F1006430F000600888
:10065000F7005F08F6005E08F5005D08F4008031E1
:10066000582082317308720471047004031D392B01
:100670003A2B472B20004108D8005808F0004008CA
:10068000D9005908F10042088E31B226823100307B
:10069000F3000030F2002730F1001030F0002000AD
:1006A0006008F7005F08F6005E08F5005D08F400DA
:1006B0008031582082317308720471047004031D64
:1006C000622B632B6A2B80311C2082312000D800E2
:1006D0005808BE0020003E0803196F2B702BDD2B3D
:1006E00060083302031D7E2B5F083202031D7E2B40
:1006F0005E083102031D7E2B5D0830020318812B3A
:10070000822B892B8231612282312000D800580847
:10071000DB005B0803198D2B8E2BA82BDB01410816
:10072000D8005808F0004008D9005908F1004208E4
:10073000803106208231643020005D07B000003037
:100740005E3DB10000305F3DB2000030603DB3005F
:1007500042080319AC2BAD2BDD2B40080319B12B3C
:10076000B22BC42B8F311A2782312000D8005808B1
:10077000DC0080305C02031CBE2BBF2BC22B22008E
:100780000D17C42B22000D1320006008D2005F0853
:10079000D1005E08D0005D08CF004108D80058089D
:1007A000D3004008D9005908D4005C08DA005A0880
:1007B000D500813142218231F42B6008D2005F08DC
:1007C000D1005E08D0005D08CF000530D800580881
:1007D000D3004008D9005908D4005C08DA005A0850
:1007E000D50081314221823101302000DD07003007
:1007F000DE3D0030DF3D0030E03D1F2B8031022820
:10080000FC3400340334F93400340634F634003454
:100810000934F33400340C34F03400340F34ED3444
:1008200000341234EA3400341534E7340034183418
:10083000E43400341B34E13400341E34DE3400343C
:100840002134DB3400342434D83400342734D53414
:1008500000342A34D23400342D34CF3400343034D0
:10086000CC3400343334C93400343634C634003424
:100870003934C33400343C34C03400343F34BD34E4
:1008800000344234BA3400344534B7340034483488
:10089000B43400344B34B13400344E34AE3400340C
:1008A0005134AB3400345434A83400345734A534B4
:1008B00000345A34A23400345D349F340034603440
:1008C0009C340034633499340034663496340034F4
:1008D0006934933400346C34903400346F348D3484
:1008E000003472348A3400347534873400347834F8
:1008F000843400347B34813400347E347E340034DC
:1009000081347B3400348434783400348734753453
:1009100000348A34723400348D346F3400349034AF
:100920006C340034933469340034963466340034C3
:100930009934633400349C34603400349F345D3423
:100940000034A2345A340034A53457340034A83467
:1009500054340034AB3451340034AE344E340034AB
:10096000B1344B340034B43448340034B7344534F3
:100970000034BA3442340034BD343F340034C0341F
:100980003C340034C33439340034C6343634003493
:10099000C93433340034CC3430340034CF342D34C3
:1009A0000034D2342A340034D53427340034D834D7
:1009B00024340034DB3421340034DE341E3400347B
:1009C000E1341B340034E43418340034E734153493
:1009D0000034EA3412340034ED340F340034F0348F
:1009E0000C340034F33409340034F6340634003463
:1009F000F93403340034FC3400340034FF34003460
:100A00000334FC3400340634F93400340934F63449
:100A100000340C34F33400340F34F0340034123426
:100A2000ED3400341534EA3400341834E73400343B
:100A30001B34E43400341E34E13400342134DE3419
:100A400000342434DB3400342734D83400342A34DE
:100A5000D53400342D34D23400343034CF34003423
:100A60003334CC3400343634C93400343934C634E9
:100A700000343C34C33400343F34C0340034423496
:100A8000BD3400344534BA3400344834B73400340B
:100A90004B34B43400344E34B13400345134AE34B9
:100AA00000345434AB3400345734A83400345A344E
:100AB000A53400345D34A234003460349F340034F3
:100AC00063349C3400346634993400346934963489
:100AD00000346C34933400346F3490340034723406
:100AE0008D34003475348A340034783487340034DB
:100AF0007B34843400347E348134003481347E3459
:100B0000003484347B3400348734783400348A34BD
:100B1000753400348D347234003490346F340034C2
:100B200093346C3400349634693400349934663428
:100B300000349C34633400349F3460340034A23475
:100B40005D340034A5345A340034A83457340034AA
:100B5000AB3454340034AE3451340034B1344E34F8
:100B60000034B4344B340034B73448340034BA342D
:100B700045340034BD3442340034C0343F34003492
:100B8000C3343C340034C63439340034C9343634C8
:100B90000034CC3433340034CF3430340034D234E5
:100BA0002D340034D5342A340034D834273400347A
:100BB000DB3424340034DE3421340034E1341E3498
:100BC0000034E4341B340034E73418340034EA349D
:100BD00015340034ED3412340034F0340F34003462
:100BE000F3340C340034F63409340034F934063468
:100BF0000034FC3403340034FF3400340334FC3458
:100C000000340634F93400340934F63400340C343A
:100C1000F33400340F34F03400341234ED34003443
:100C20001534EA3400341834E73400341B34E43427
:100C300000341E34E13400342134DE3400342434F2
:100C4000DB3400342734D83400342A34D53400342B
:100C50002D34D23400343034CF3400343334CC34F7
:100C600000343634C93400343934C63400343C34AA
:100C7000C33400343F34C03400344234BD34003413
:100C80004534BA3400344834B73400344B34B434C7
:100C900000344E34B13400345134AE340034543462
:100CA000AB3400345734A83400345A34A5340034FB
:100CB0005D34A234003460349F34003463349C3497
:100CC00000346634993400346934963400346C341A
:100CD000933400346F349034003472348D340034E3
:100CE00075348A3400347834873400347B34843467
:100CF00000347E348134003481347E3400348434D2
:100D00007B3400348734783400348A3475340034CA
:100D10008D347234003490346F34003493346C3436
:100D200000349634693400349934663400349C3489
:100D3000633400349F3460340034A2345D340034B2
:100D4000A5345A340034A83457340034AB34543406
:100D50000034AE3451340034B1344E340034B43441
:100D60004B340034B73448340034BA34453400349A
:100D7000BD3442340034C0343F340034C3343C34D6
:100D80000034C63439340034C93436340034CC34F9
:100D900033340034CF3430340034D2342D34003482
:100DA000D5342A340034D83427340034DB342434A6
:100DB0000034DE3421340034E1341E340034E434B1
:100DC0001B340034E73418340034EA34153400346A
:100DD000ED3412340034F0340F340034F3340C3476
:100DE0000034F63409340034F93406340034FC3469
:100DF00003340034FF340034003400340034003451
:100E00003C30840023308500B430FE000030FF0009
:100E10008F310E2787312030840000308500233049
:100E2000FE000030FF008F310E2787312000823115
:100E3000E82A2000CD00FF30F6000030F7004D0812
:100E4000C900CA014908F0004A08F1000F30F20059
:100E50000030F3008F31BE2787317108F900700828
:100E6000F80081319621873176082000CB000230CE
:100E7000CB35FF3E031D382F4B35083ECC004C08C8
:100E8000CE0047083407B4004808353DB5003508A2
:100E9000803AC90081304902031D502F00303402CE
:100EA000031C532F542F572F2000B401B5012000ED
:100EB000B51F5B2F5C2F602FFF30B4000030B500F2
:100EC0003508F1003408F0000330F2000030F30080
:100ED0008F31BE278731710885007008840001308A
:100EE00084078430853D00082000C9004908F600C9
:100EF0003508F1003408F0000330F2000030F30050
:100F00008F31BE2787317108850070088400023058
:100F100084078430853D00082000CA004A08F70095
:100F2000F8014E08CB004B08F9003508F1003408F1
:100F3000F0000330F2000030F3008F31BE2787311C
:100F40007108850070088400003084078430853D76
:100F500000088F31A127873134302000C900F130DB
:100F6000890BB02FC90BB02F003208007E3411342A
:100F7000113411347E347F344934493449343634A1
:100F80003E3441344134413422347F34413441349D
:100F900022341C347F3449344934493441347F3459
:100FA00009340934093401343E3441344934493474
:100FB0007A347F340834083408347F3400344134C0
:100FC0007F34413400342034403441343F340134E0
:100FD0007F3408341434223441347F344034403474
:100FE000403440347F3402340C3402347F347F3454
:100FF0000434083410347F343E34413441344134B5
:101000003E347F3409340934093406343E344134E3
:10101000513421345E347F34093419342934463450
:1010200046344934493449343134013401347F344D
:10103000013401343F344034403440343F341F34B1
:101040002034403420341F343F344034383440346A
:101050003F346334143408341434633407340834AC
:1010600070340834073461345134493445344334DE
:101D6400080016302100970008008E31E4268E31D9
:101D740008008031F1208E3108008F31DD278E314B
:101D8400080071082000B7007008B6000800710848
:101D94002000BB007008BA00080071082000B900D8
:101DA4007008B80008008E31E4268E312000BE0190
:101DB400BE0A0800043020009B009A0191100430F0
:101DC4009C000800803021009E009F019B019C0123
:101DD40001309D0008002000B401B501F601F701AF
:101DE40000308F3151278E31080080302C009C0048
:101DF40002309B0040309A003F3025009E050800C9
:101E040070302100990098012200960121001A1FC8
:101E14000C2F0D2F082F08006400800101310130C0
:101E2400FE020030FF3B7F087E04031D0F2F0034A9
:101E340000308F316A278F317108F5007008F40083
:101E44000230F536F40C890B232F74080800133084
:101E54003C00A0001430A10010303D00A300240079
:101E64009401233095000130920021008E1124004A
:101E74009512080001303E00A5000F30A600103076
:101E8400A7001130A800A9010530AA001030AB004A
:101E94000830AC002030AD008030A4000800FA0007
:101EA400FB017608F8007808F0007708F900790853
:101EB400F1007A08803107208F310130F80078086A
:101EC400FB0780307B02031C682F692F532F080007
:101ED400F3007308F200F20DF20D21001D087206E2
:101EE400833972069D001D140D30890B772F000075
:101EF40021009D149D187F2F802F7C2F1C08F1003A
:101F04001B08F00008008F3129278F318031F12020
:101F14008F318F3102278F318E31B3268F318E313D
:101F2400E4268F318F313C278F318E31F7268F3164
:101F34008E31DC268F318F31DD278F310800FC0094
:101F44007808FA007A08FD00B72F7608FA007A08B4
:101F5400F0007708FB007B08F1007C088031072043
:101F64008F310130FA007A08FD0779087D02031CDD
:101F7400BC2FBD2FA72F0800F401F501701CC32F3F
:101F8400C42FC82F7208F4077308F53D0130F235E9
:101F9400F30D890BC92F0130F136F00C890BCE2FCC
:101FA40070087104031DD72FD82FC02F7508F100B6
:101FB4007408F0000800083023009F0080309D0062
:101FC40024309E0040309B0003309C000030F00021
:101FD4000030F1008E31C9268F310030F00000301E
:101FE400F1008E31CF268F310030F0000030F10047
:101FF4008E31C3268F312000BF0108002334003402
:04200400013400346F
:020000040001F9
:04000E00E43FFF3F8D
:00000001FF
