:020000040000FA
:10000000803102288731002F08002100E600D2301D
:1000100086000030870014302000EC0000301E0005
:10002000EC0B0F281D30E6009030E7002100660839
:100030002000EC00ED016C08E8006D08E900D2300A
:100040008931E7218031D230F1000030F20088316F
:10005000ED20803144302000E6009030E7006A084F
:10006000EC00ED016C08E8006D08E900D230893140
:10007000E7218031D230F1000030F2008831ED20EC
:10008000803131302000E6009030E7006B08EC0052
:10009000ED016C08E8006D08E900D2308931E721F4
:1000A0008031D230F1000030F2008831ED20803113
:1000B0000800F2012030860000308700473FF00042
:1000C000F01F6328642885282000A009A109A2093F
:1000D000A309A409A509A609A709A00A031D832845
:1000E000A10A031D8328A20A031D8328A30A031D56
:1000F0008328A40A031D8328A50A031D8328A60AB2
:10010000031D8328A70AF201F20A28308600003076
:100110008700473FF000F01F8E288F28B22820006C
:10012000A809A909AA09AB09AC09AD09AE09AF092B
:10013000A80A031DAE28A90A031DAE28AA0A031D9A
:10014000AE28AB0A031DAE28AC0A031DAE28AD0ACB
:10015000031DAE28AE0A031DAE28AF0A0130F00021
:100160007008F20673308600003087000830F00017
:1001700000301E00F00BB9282000200821042204C2
:10018000230424042504260427040319C828C928A5
:100190002529F101F10AD828A035A10DA20DA30D42
:1001A000A40DA50DA60DA70D0130F0007008F107F4
:1001B000A71FDB28DC28CC28F335F40DF50DF60D50
:1001C000F70DF80DF90DFA0D27082F02031D02296E
:1001D00026082E02031D022925082D02031D0229CF
:1001E00024082C02031D022923082B02031D0229C7
:1001F00022082A02031D022921082902031D0229BF
:1002000020082802031C0529062917292008A8020E
:100210002108A93B2208AA3B2308AB3B2408AC3B9E
:100220002508AD3B2608AE3B2708AF3B7314A73625
:10023000A60CA50CA40CA30CA20CA10CA00C0130C4
:10024000F102031D24292529DC2872080319292914
:100250002A294829F309F409F509F609F709F809E3
:10026000F909FA09F30A031D4829F40A031D48296C
:10027000F50A031D4829F60A031D4829F70A031D3C
:100280004829F80A031D4829F90A031D4829FA0AD2
:1002900073082000A0007408A1007508A200760869
:1002A000A3007708A4007808A5007908A6007A08BA
:1002B000A700080089316C21813100308A31AF22DA
:1002C0008131883131208131C7302100E700670852
:1002D000F000C630E8006808F100C83088313020EE
:1002E000813188313620813188313A20813188311D
:1002F0005020813188316920813188317E208131DF
:1003000000302100EF000030EE000030ED00003042
:10031000EC000030B3000030B2000030B10000301B
:10032000B0000030F3000030F2000030F100643023
:10033000F0006F08F7006E08F6006D08F5006C0815
:10034000F4008A31652281317308720471047004EB
:10035000031DAB29AC29BD2921004708E700670828
:100360002000EA0021004608E80068082000EB00B1
:10037000210048088031052081310030F300003031
:10038000F2002730F1001030F00021006F08F70074
:100390006E08F6006D08F5006C08F4008A316522DD
:1003A00081317308720471047004031DD829D9299E
:1003B000E0298731C42781312100E7006708C400A4
:1003C000210044080319E529E629602A6F08330251
:1003D000031DF4296E083202031DF4296D08310251
:1003E000031DF4296C0830020318F729F829FF29A6
:1003F0008D31B02581312100E7006708EA006A08E5
:100400000319032A042A1E2AEA014708E70067089D
:10041000F0004608E8006808F10048088031042030
:100420008131643021006C07B00000306D3DB100B7
:1004300000306E3DB20000306F3DB3004808031934
:10044000222A232A602A46080319272A282A3A2A18
:100450008831A12081312100E7006708EB0080305E
:100460006B02031C342A352A382A22000D173A2A37
:1004700022000D1321006F082000AF0021006E083C
:100480002000AE0021006D082000AD0021006C08A6
:100490002000AC0021004708E70067082000B000FA
:1004A00021004608E80068082000B10021006B0820
:1004B000E90069082000B2008D3138258131842A95
:1004C0006F082000AF0021006E082000AE00210060
:1004D0006D082000AD0021006C082000AC00053044
:1004E0002100E70067082000B00021004608E8006E
:1004F00068082000B10021006B08E90069082000AD
:10050000B2008D313825813101302100EC070030F7
:10051000ED3D0030EE3D0030EF3D91298031022865
:100520002000BD003008C4003108C5003208C600F4
:100530003308C7003408C8003508C9003608CA00A7
:100540003708CB004430860000308700473FB800B2
:10055000B81BAB2AAD2A0130AE2A00302000B9000A
:10056000BA013908C2003A08C3004208430403191B
:10057000BA2ABB2AD92AC409C509C609C709C809A4
:10058000C909CA09CB09C40A031DD92AC50A031D12
:10059000D92AC60A031DD92AC70A031DD92AC80A9F
:1005A000031DD92AC90A031DD92ACA0A031DD92A3B
:1005B000CB0A2100B91BDD2ADE2AE22AFD30BA056A
:1005C000FF30BB053908803A2000B800803038027F
:1005D000031DED2A0130210038020318F02AF12A08
:1005E000F72A01302000BE000030BF00FF2A2100A2
:1005F00039082000BF00210038082000BE0021007B
:1006000037082000C100210036082000C000420841
:100610004304031D0C2B0D2B122B21003A1D112B13
:10062000122B172BFF302000C007FF30C13D1F30B9
:100630002000CC000030CD002200D301882BFF30F9
:100640002000CC07FF30CD3D0A30A000A101A2015F
:10065000A301A401A501A601A7014408A80045081B
:10066000A9004608AA004708AB004808AC004908A2
:10067000AD004A08AE004B08AF008F31162782311B
:1006800020002108F4002008F30089311D21823167
:100690007308303E2000B8004C08343E860001301C
:1006A000870038088100FF30BE07FF30BF3DFF30B4
:1006B000C007FF30C13D0A30A000A101A201A30183
:1006C000A401A501A601A7014408A8004508A900A6
:1006D0004608AA004708AB004808AC004908AD002E
:1006E0004A08AE004B08AF0080315920823120000B
:1006F0002008C4002108C5002208C6002308C7003E
:100700002408C8002508C9002608CA002708CB000D
:1007100020004D08803AB80080303802031D922B2B
:1007200001304C02031C952B962BC32B2000440850
:10073000450446044704480449044A044B04031D85
:10074000A22BA32B1F2B3F08803AB8008030380221
:10075000031DAC2B01303E020318AF2BB02B1F2B17
:1007600020004108803AB80080303802031DBA2BBF
:1007700001304002031CBD2BBE2BC32B2100BA1835
:10078000C22BC32B1F2B200042084304031DC92B7F
:10079000CA2BCF2B21003A1DCE2BCF2BEC2BFF30B9
:1007A0002000CC07FF30CD3D42084304031DD92B68
:1007B000DA2BDF2B2B30BB000030BC00E32B2D30BD
:1007C000BB000030BC003B08B8004C08343E86003B
:1007D000013087003808810020004C08343EB80002
:1007E0003808A4004108A6004008A5003D088B3148
:1007F000A323823120002508B1002408B00008009E
:10080000FC3400340334F93400340634F634003454
:100810000934F33400340C34F03400340F34ED3444
:1008200000341234EA3400341534E7340034183418
:10083000E43400341B34E13400341E34DE3400343C
:100840002134DB3400342434D83400342734D53414
:1008500000342A34D23400342D34CF3400343034D0
:10086000CC3400343334C93400343634C634003424
:100870003934C33400343C34C03400343F34BD34E4
:1008800000344234BA3400344534B7340034483488
:10089000B43400344B34B13400344E34AE3400340C
:1008A0005134AB3400345434A83400345734A534B4
:1008B00000345A34A23400345D349F340034603440
:1008C0009C340034633499340034663496340034F4
:1008D0006934933400346C34903400346F348D3484
:1008E000003472348A3400347534873400347834F8
:1008F000843400347B34813400347E347E340034DC
:1009000081347B3400348434783400348734753453
:1009100000348A34723400348D346F3400349034AF
:100920006C340034933469340034963466340034C3
:100930009934633400349C34603400349F345D3423
:100940000034A2345A340034A53457340034A83467
:1009500054340034AB3451340034AE344E340034AB
:10096000B1344B340034B43448340034B7344534F3
:100970000034BA3442340034BD343F340034C0341F
:100980003C340034C33439340034C6343634003493
:10099000C93433340034CC3430340034CF342D34C3
:1009A0000034D2342A340034D53427340034D834D7
:1009B00024340034DB3421340034DE341E3400347B
:1009C000E1341B340034E43418340034E734153493
:1009D0000034EA3412340034ED340F340034F0348F
:1009E0000C340034F33409340034F6340634003463
:1009F000F93403340034FC3400340034FF34003460
:100A00000334FC3400340634F93400340934F63449
:100A100000340C34F33400340F34F0340034123426
:100A2000ED3400341534EA3400341834E73400343B
:100A30001B34E43400341E34E13400342134DE3419
:100A400000342434DB3400342734D83400342A34DE
:100A5000D53400342D34D23400343034CF34003423
:100A60003334CC3400343634C93400343934C634E9
:100A700000343C34C33400343F34C0340034423496
:100A8000BD3400344534BA3400344834B73400340B
:100A90004B34B43400344E34B13400345134AE34B9
:100AA00000345434AB3400345734A83400345A344E
:100AB000A53400345D34A234003460349F340034F3
:100AC00063349C3400346634993400346934963489
:100AD00000346C34933400346F3490340034723406
:100AE0008D34003475348A340034783487340034DB
:100AF0007B34843400347E348134003481347E3459
:100B0000003484347B3400348734783400348A34BD
:100B1000753400348D347234003490346F340034C2
:100B200093346C3400349634693400349934663428
:100B300000349C34633400349F3460340034A23475
:100B40005D340034A5345A340034A83457340034AA
:100B5000AB3454340034AE3451340034B1344E34F8
:100B60000034B4344B340034B73448340034BA342D
:100B700045340034BD3442340034C0343F34003492
:100B8000C3343C340034C63439340034C9343634C8
:100B90000034CC3433340034CF3430340034D234E5
:100BA0002D340034D5342A340034D834273400347A
:100BB000DB3424340034DE3421340034E1341E3498
:100BC0000034E4341B340034E73418340034EA349D
:100BD00015340034ED3412340034F0340F34003462
:100BE000F3340C340034F63409340034F934063468
:100BF0000034FC3403340034FF3400340334FC3458
:100C000000340634F93400340934F63400340C343A
:100C1000F33400340F34F03400341234ED34003443
:100C20001534EA3400341834E73400341B34E43427
:100C300000341E34E13400342134DE3400342434F2
:100C4000DB3400342734D83400342A34D53400342B
:100C50002D34D23400343034CF3400343334CC34F7
:100C600000343634C93400343934C63400343C34AA
:100C7000C33400343F34C03400344234BD34003413
:100C80004534BA3400344834B73400344B34B434C7
:100C900000344E34B13400345134AE340034543462
:100CA000AB3400345734A83400345A34A5340034FB
:100CB0005D34A234003460349F34003463349C3497
:100CC00000346634993400346934963400346C341A
:100CD000933400346F349034003472348D340034E3
:100CE00075348A3400347834873400347B34843467
:100CF00000347E348134003481347E3400348434D2
:100D00007B3400348734783400348A3475340034CA
:100D10008D347234003490346F34003493346C3436
:100D200000349634693400349934663400349C3489
:100D3000633400349F3460340034A2345D340034B2
:100D4000A5345A340034A83457340034AB34543406
:100D50000034AE3451340034B1344E340034B43441
:100D60004B340034B73448340034BA34453400349A
:100D7000BD3442340034C0343F340034C3343C34D6
:100D80000034C63439340034C93436340034CC34F9
:100D900033340034CF3430340034D2342D34003482
:100DA000D5342A340034D83427340034DB342434A6
:100DB0000034DE3421340034E1341E340034E434B1
:100DC0001B340034E73418340034EA34153400346A
:100DD000ED3412340034F0340F340034F3340C3476
:100DE0000034F63409340034F93406340034FC3469
:100DF00003340034FF340034003400340034003451
:100E00003C30840023308500B430FE000030FF0009
:100E10008831952087312000EE01EF01A030840059
:100E2000003085002930FE000030FF008831952019
:100E3000873120308400013085003430FE000030DE
:100E4000FF00883195208731200081315A29200008
:100E5000AA00FF30F6000030F7002A08A600A7011C
:100E60002608F0002708F1000F30F2000030F300F0
:100E70008931A52187317108F9007008F8008B319C
:100E8000FC23873176082000A8000230A835FF3EF9
:100E9000031D462F2835083EA9002908AB00240869
:100EA0006E07EE0025086F3DEF006F08803AA60040
:100EB00081302602031D5E2F00306E02031C612F5D
:100EC000622F652F2000EE01EF012000EF1F692F38
:100ED0006A2F6E2FFF30EE000030EF006F08F10038
:100EE0006E08F0000330F2000030F3008931A521D4
:100EF00087317108850070088400013084078430D0
:100F0000853D00082000A6002608F6006F08F100C5
:100F10006E08F0000330F2000030F3008931A521A3
:100F2000873171088500700884000230840784309E
:100F3000853D00082000A7002708F700F8012B08CE
:100F4000A8002808F9006F08F1006E08F0000330CF
:100F5000F2000030F3008931A52187317108850046
:100F600070088400003084078430853D0008893192
:100F70008821873134302000A600F130890BBE2F44
:100F8000A60BBE2F00320800013089315121873174
:100F90007108F5007008F400210044080319D12FEE
:100FA000D22FE42F00307502853003197402031C20
:100FB000DA2FDB2FDF2FF60122008D15F52FF6013A
:100FC000F60A22008D11F52F0030750270300319DA
:100FD00074020318EC2FED2FF22FF601F60A22000F
:100FE0008D11F52FF60122008D157608080080304E
:100FF00021009E009F019B019C0101309D00080083
:10105E0008000800080016302100970008008731AC
:10106E00F727883108008B314D238831080071082D
:10107E002100BD007008BC00080071082100C100ED
:10108E007008C000080071082100BF007008BE0083
:10109E0008008731F72788312100C401C40A0800EF
:1010AE00043020009B009A01911004309C0008002F
:1010BE00F0002000111E64286528602870082300A7
:1010CE009A0008002000EE01EF01F601F701003052
:1010DE00893104218831080080302C009C000230B8
:1010EE009B0040309A003F3025009E050800893154
:1010FE00C42188310030F1009030F2008831ED20AB
:10110E008831080070302100990098012200960164
:10111E0021001A1F932894288F280800640080014C
:10112E0001310130FE020030FF3B7F087E04031DBB
:10113E009628003400308931512188317108F5002C
:10114E007008F4000230F536F40C890BAA287408E6
:10115E00080013303C00A0001430A10010303D00F8
:10116E00A300240094012330950001309200210049
:10117E008E1124009512080001303E00A5000F309C
:10118E00A6001030A7001130A800A9010530AA0052
:10119E001030AB000830AC002030AD008030A40021
:1011AE000800F200700824009100141CDF28E028CB
:1011BE00DC2872089100141CE528E628E228710844
:1011CE009100141CEB28EC28E8280800FA28710876
:1011DE00840072088500000888315F208831013054
:1011EE00F1070030F23D710884007208850012008C
:1011FE00031D02290329EE280800FA00FB017608D8
:10120E00F8007808F0007708F9007908F1007A08FC
:10121E008831D82089310130F8007808FB078030FA
:10122E007B02031C1B291C29062908007408803A1E
:10123E00F50080307502031D262901307302031854
:10124E0029292A2936297309F5007409F600F50AA9
:10125E000319F60A7508F3007608F400362908001B
:10126E00F4007408F2007208F30041290130F20014
:10127E007208F40774088600013087000108031D08
:10128E0049294A293D2973087402F000F101F01B27
:10129E00F1030800F3007308F200F20DF20D2100C5
:1012AE001D087206833972069D001D140D30890BC0
:1012BE005E29000021009D149D1866296729632967
:1012CE001C08F1001B08F00008008831B02089319D
:1012DE008B314D23893188318920893188313220F3
:1012EE0089318731F72789318831C3208931883197
:1012FE00732089318831572089318931C421893150
:10130E000800FC007808FA007A08FD009E2976088D
:10131E00FA007A08F0007708FB007B08F1007C08E1
:10132E008831D82089310130FA007A08FD07790812
:10133E007D02031CA329A4298E290800F401F501BE
:10134E00701CAA29AB29AF297208F4077308F53D62
:10135E000130F235F30D890BB0290130F136F00C66
:10136E00890BB52970087104031DBE29BF29A72951
:10137E007508F1007408F0000800083023009F0083
:10138E0090309D0024309E0040309B0003309C0026
:10139E000030F0000030F1008831442089310030F7
:1013AE00F0000030F10088314A2089310030F00021
:1013BE000030F10088313E2089312100C50108003E
:1013CE002100CC006830FD007D08CB004C08FD00EC
:1013DE007D08CD00CE01CF01D001D10120006708DC
:1013EE00DF006608DE00CB30FD007D08E000CD306A
:1013FE008A313422893121004E084C07FD007D08C8
:10140E0086008701810108002000A300A101A2012E
:10141E00232A2008F900FA017908F0007A08F10071
:10142E007808FB007B08F2008A31FE228A310130F7
:10143E002000A1070030A23D21082307F9007908FA
:10144E008600013087000108FA007A08A000200803
:10145E00031D322A332A102A08002000E3005F08F9
:10146E00E5005E08E4002100B401B501522A6430A3
:10147E00E1006108CE006008E2006208CF00630858
:10148E008E313B268A3120004E082100B407200001
:10149E004F082100B53D20006408840065088500D2
:1014AE001200031D5B2A5C2A3E2A2100350820000B
:1014BE00DF00210034082000DE00080073087204EB
:1014CE007104700403196C2A6D2AA62AF901F90A0F
:1014DE007B2A0130F035F10DF20DF30D890B712AD7
:1014EE000130F8007808F907F31F7E2A7F2A702A48
:1014FE0073087702031D8D2A72087602031D8D2A4A
:10150E0071087502031D8D2A70087402031C902A3F
:10151E00912A992A7008F4027108F53B7208F63B7D
:10152E007308F73B0130F336F20CF10CF00C890B1B
:10153E009A2A0130F902031DA52AA62A7F2A7708C6
:10154E00F3007608F2007508F1007408F000080048
:10155E00F3002400951AB42AB52AFD2A7308F00068
:10156E00F101F035F10DF035F10D573070078400B3
:10157E009030713D8500000894007308F000F10171
:10158E00F035F10DF035F10D5630700784009030C6
:10159E00713D85000008950096017308F000F10179
:1015AE00F035F10DF035F10D5830700784009030A4
:1015BE00713D8500000892007308F000F101F035CE
:1015CE00F10DF035F10D5930700784009030713DFA
:1015DE0085000008F200F20DF20DF20D21000E084A
:1015EE007206F73972068E002400951608007208EE
:1015FE000319022B032B082B7208031D072B082B34
:10160E000D2B700888312F208A314C2B7208033E27
:10161E0086008701160001040319162B172B342B95
:10162E007208033E86008701403FF300413FF400FD
:10163E00720A86008701403FF500413FF6007608AA
:10164E00803AF7007408803A7702031D302B730836
:10165E0075020318332B342B4C2B7008F3007208D1
:10166E0086008701720A8400850100080107F400D4
:10167E0074088600870173088100720A860087014C
:10168E000130810741310318810A080022009001C0
:10169E008F018C018D018E010F3021009000FF30E3
:1016AE008C0087308D00B6308E00FE308F00FE30FD
:1016BE0023008F00E4308E0020308D000730900024
:1016CE003F308C0024008F0190018D018C018E0122
:1016DE0021009517250090018C018D018E018F013F
:1016EE00FF3026008C00FF308D00FF308E00FF3063
:1016FE008F0007309000FF3027008C00FF308D00E8
:10170E00FF308E00FF308F000F30900014303D0000
:10171E00A00011303C00A4001430A10010303D0098
:10172E00A3003C00A80106303D00A8001430A6001E
:10173E0013303C00A00008002000AB0021003A1C32
:10174E00A92BAA2BB32B20002B08FC007C08F80039
:10175E0024088A310B228B312000A61BB72BB82B05
:10176E00BD2B2608AA002508A900BF2BA901AA0196
:10177E00A701A801D32B2030F0000030F10020008B
:10178E002B08FC007C08F2008A31FE228B310130DE
:10179E002000A7070030A83D2808803AFC002A0840
:1017AE00803A7C02031DDD2B29082702031CE02B47
:1017BE00E12BC22B21003A18E52BE62BEF2B200054
:1017CE002B08FC007C08F80024088A310B228B3190
:1017DE0020002408893137218B3120002908700719
:1017EE00A4002A08713DA50008002000A101F71FE2
:1017FE00012C022C092CF609F709F60A0319F70A2F
:10180E00A101A10AF91F0C2C0D2C162CF809F909AF
:10181E00F80A0319F90A0130FA007A08A106A201A2
:10182E00A3017608770403191D2C1E2C4D2CA00144
:10183E00A00A2A2C0130F635F70D890B222C013027
:10184E00FA007A08A007F71F2D2C2E2C212C013020
:10185E00A235A30D890B2F2C77087902031D392C85
:10186E0076087802031C3C2C3D2C422C7608F8029C
:10187E007708F93B22140130F736F60C890B432C0E
:10188E000130A002031D4C2C4D2C2E2C21080319C7
:10189E00512C522C572CA209A309A20A0319A30AF0
:1018AE002308F7002208F6000800FC00F601F701F5
:1018BE000030893104218C3134302000A000F13009
:1018CE00890B672CA00B672C00327C082000A0002F
:1018DE00A1012008F0002108F1000330F2000030D1
:1018EE00F3008931A5218C317108850070088400C0
:1018FE00013084078430853D00082000A2002208B4
:10190E00F6007C08A300A4012308F0002408F100CF
:10191E000330F2000030F3008931A5218C317108BB
:10192E00850070088400023084078430853D0008ED
:10193E002000A5002508F7007C08A600A7012608B0
:10194E00F0002708F1000330F2000030F300893177
:10195E00A5218C3171088500700884000030840741
:10196E008430853D0008893104218C3134302000CB
:10197E00A000F130890BC12CA00BC12C0032080045
:10198E00FC00F601F7010030893104218C31023060
:10199E002000A1003830A000AD30890BD42CA00B54
:1019AE00D42CA10BD42C7C082000A000A10120086F
:1019BE00F0002108F1000330F2000030F30089310D
:1019CE00A5218C31710885007008840001308407D0
:1019DE008430853D00082000A2002208F6007C0815
:1019EE00A300A4012308F0002408F1000330F20044
:1019FE000030F3008931A5218C3171088500700803
:101A0E008400023084078430853D00082000A50044
:101A1E002508F7007C08A600A7012608F000270875
:101A2E00F1000330F2000030F3008931A5218C3132
:101A3E007108850070088400003084078430853D6D
:101A4E000008893104218C3102302000A100383089
:101A5E00A000AD30890B312DA00B312DA10B312DF6
:101A6E000800952D0A30A4000030A50032088731F9
:101A7E0027278D31AF2D3108031D462D472D5D2DA6
:101A8E00FF30B3003308F600B430B4003408F7006A
:101A9E006430893104218D3134302000B300F130AF
:101AAE00890B572DB30B572D0032AF2D32088C31C9
:101ABE00C7248D31AF2D3108031D662D672D712D75
:101ACE00FF30B3003308F600F701FF3089310421EF
:101ADE008D31532DF630A400FF30A500320887312A
:101AEE0027278D31AF2D3108031D7E2D7F2D892D9A
:101AFE00F601FF30B3003308F700FF3089310421BF
:101B0E008D31532D32088C315C248D31AF2DF60181
:101B1E00F7010030893104218D31532D200030081A
:101B2E00B300B4013408003A03199E2DAF2D3308CB
:101B3E00003A0319392D013A0319422D033A0319BC
:101B4E00622D013A03197A2D063A03198E2DAF2D07
:101B5E0008002000A0010D080139F000F101F2018A
:101B6E007008A1007108A2007208A3000D0C0139C3
:101B7E00F000F101F2017008A4007108A5007208CE
:101B8E00A6000D0C890C0139F000F101F20170086C
:101B9E00A7007108A8007208A9002708F0002808FD
:101BAE00F1002908F20021082407F3002208253D40
:101BBE00F4002308263DF5007308F0077408F13D84
:101BCE007508F23D7208710470040319EF2DF02DA3
:101BDE00F22DA001A00A2308220421040319F82DD6
:101BEE00F92D0C2E0130F00070082100C8070130CD
:101BFE00F0007008C80548080319062E072E0A2E95
:101C0E0022008D160C2E22008D122000260825048F
:101C1E0024040319132E142E1D2E0130F00070080B
:101C2E002100C7070330F0007008C70520002908FF
:101C3E00280427040319242E252E382E0130F000F7
:101C4E0070082100C6070130F0007008C60546086E
:101C5E000319322E332E362E22000D16382E220068
:101C6E000D122000200808002000DD004E0886001E
:101C7E008701403FD000413FD100500884005108F9
:101C8E0085001200253A031D4D2E4E2EF22E4E08C3
:101C9E00860087010130810741310318810A210036
:101CAE00B601B701BA01BB01FF30B800FF30B90071
:101CBE0020004E0886008701403FD000413FD100F2
:101CCE0050088400510885001200643A0319702EE2
:101CDE00712E822E4E0886008701403FD000413F74
:101CEE00D10050088400510885001200693A031D86
:101CFE00812E822EBD2E4E0886008701013081076F
:101D0E0041310318810A4F088600870101088400BB
:101D1E00850102308107003FD000013FD1005008FD
:101D2E00D5005108D600890D893B8909D700D80006
:101D3E00D900DA00DB00DC005508B0005608B1000F
:101D4E005708B2005808B3005908B4005A08B50035
:101D5E005B08B6005C08B7005D08823190228E31B8
:101D6E0020003108CF003008CE00152F4E08860017
:101D7E008701403FD000413FD100500884005108F8
:101D8E0085001200253A031DCD2ECE2EE72E4E08CD
:101D9E00860087010130810741310318810A253001
:101DAE00F0000030F1005D08D0005008F2008A31DA
:101DBE00FE228E3101302000CE000030CF00152FD4
:101DCE004E08860087010130810741310318810AD0
:101DDE00CE01CF01152F4E0886008701403FD0005F
:101DEE00413FD10050088400510885000008D20000
:101DFE00D3015208F0005308F1005D08D4005408D6
:101E0E00F2008A31FE228E3120004E0886008701B4
:101E1E000130810741310318810AE12E0800F201D9
:101E2E002830860000308700473FF000F01F202F3B
:101E3E00212F422F2000A809A909AA09AB09AC0934
:101E4E00AD09AE09AF09A80A031D402FA90A031D4B
:101E5E00402FAA0A031D402FAB0A031D402FAC0AC8
:101E6E00031D402FAD0A031D402FAE0A031D402F48
:101E7E00AF0AF201F20A2030860000308700473F99
:101E8E00F000F01F4B2F4C2F6B2F2000A009A10943
:101E9E00A209A309A409A509A609A709A00A031D59
:101EAE006B2FA10A031D6B2FA20A031D6B2FA30A12
:101EBE00031D6B2FA40A031D6B2FA50A031D6B2F89
:101ECE00A60A031D6B2FA70A200020082104220456
:101EDE00230424042504260427040319772F782FBE
:101EEE00CB2FF101F10A872FA035A10DA20DA30D65
:101EFE00A40DA50DA60DA70D0130F0007008F10779
:101F0E00A71F8A2F8B2F7B2F27082F02031DA92F88
:101F1E0026082E02031DA92F25082D02031DA92F09
:101F2E0024082C02031DA92F23082B02031DA92F01
:101F3E0022082A02031DA92F21082902031DA92FF9
:101F4E0020082802031CAC2FAD2FBD2F2008A8029D
:101F5E002108A93B2208AA3B2308AB3B2408AC3B33
:101F6E002508AD3B2608AE3B2708AF3BA736A60C8F
:101F7E00A50CA40CA30CA20CA10CA00C0130F10218
:101F8E00031DCA2FCB2F8B2F72080319CF2FD02FE3
:101F9E00EE2FA809A909AA09AB09AC09AD09AE092A
:101FAE00AF09A80A031DEE2FA90A031DEE2FAA0AD8
:101FBE00031DEE2FAB0A031DEE2FAC0A031DEE2FF1
:101FCE00AD0A031DEE2FAE0A031DEE2FAF0A200041
:101FDE002808A0002908A1002A08A2002B08A300A7
:101FEE002C08A4002D08A5002E08A6002F08A70077
:101FFE00080049346E3469346334693461346C34A6
:10200E0069347A3461346E3464346F342034653418
:10201E006C342034733469347334743465346D34F1
:10202E0061342E342E342E340A3400345334743446
:10203E00613474347534733420344F344E342F3449
:10204E004F34463446343A342034253464340A341A
:10205E000D34003453347434613474347534733441
:10206E00203441347534643469346F343A34203456
:10207E00253464340A340D340034533474346134EA
:10208E0074347534733420344D346F3464346534A1
:10209E003A342034253464340A340D340034233475
:0620AE000034013400348F
:020000040001F9
:04000E00E43FFF3F8D
:00000001FF
