:020000040000FA
:08000000803102288731F42F42
:10076400080008000800080016302100970008005F
:100774008331ED23833108008531B22583310800AC
:100784008431C6248331080071082000B700700842
:10079400B600080071082000BB007008BA00080009
:1007A40071082000B9007008B800080064008001D6
:1007B4000131890BD92B00348331ED23833120009F
:1007C400BE01BE0A0800043020009B009A0191106B
:1007D40004309C000800803021009E009F019B0192
:1007E4009C0101309D00080080302C009C000230E8
:1007F4009B0040309A003F3025009E050800703071
:100804002100990098012200960121001A1F0B2C47
:100814000C2C072C080000308431732484317108B7
:10082400F5007008F4000230F536F40C890B162C30
:100834007408080013303C00A0001430A1001030EC
:100844003D00A30024009401233095000130920060
:1008540021008E1124009512080001303E00A500ED
:100864000F30A6001030A7001130A800A9010530F0
:10087400AA001030AB000830AC002030AD0080304E
:10088400A4000800F200700824009100141C4B2CF2
:100894004C2C482C72089100141C512C522C4E2CB8
:1008A40071089100141C572C582C542C0800F40186
:1008B400F501F001F1010030843144248431013028
:1008C400F4070030F53D7508803AF3008030730278
:1008D400031D6E2C08307402031C712C722C5B2CCB
:1008E4000800F3007308F200F20DF20D21001D0858
:1008F4007206833972069D001D140D30890B802CFD
:10090400000021009D149D18882C892C852C1C081E
:10091400F1001B08F000080084311C248431853167
:10092400B22584318431012484318331B623843166
:100934008331ED23843184312F2484318331F623B0
:1009440084318331E52384318431C6248431080021
:10095400AC2CC52C7408F700F8017808003A031988
:10096400B42CC52C7708003A0319AB2C013A0319AF
:10097400AB2C033A0319AB2C013A0319AB2C063AFE
:100984000319C52CC52C0800083023009F008030B3
:100994009D0024309E0040309B0003309C000030BA
:1009A400F0000030F1008331CC2384310030F000BA
:1009B4000030F1008331D22384310030F000003064
:1009C400F1008331C6238431FD01080004308431F1
:1009D400732484317108F6007008F50020003E0885
:1009E4000319F52CF62C042D02307602003003197D
:1009F4007502031CFE2CFF2C012DF401172DF401AC
:100A0400F40A172D013076020A300319750203180F
:100A14000C2D0D2D012D00307602FF3003197502C7
:100A24000318152D162DFF2C012D740808007308CA
:100A34007204710470040319202D212D5A2DF9011B
:100A4400F90A2F2D0130F035F10DF20DF30D890B5C
:100A5400252D0130F8007808F907F31F322D332DC6
:100A6400242D73087702031D412D72087602031D9D
:100A7400412D71087502031D412D70087402031C79
:100A8400442D452D4D2D7008F4027108F53B720874
:100A9400F63B7308F73B0130F336F20CF10CF00C23
:100AA400890B4E2D0130F902031D592D5A2D332D7A
:100AB4007708F3007608F2007508F1007408F00076
:100AC4000800F3002400951A682D692DB12D7308D0
:100AD400F000F101F035F10DF035F10D0130700742
:100AE40084008830713D8500000894007308F0008C
:100AF400F101F035F10DF035F10D0030700784008F
:100B04008830713D85000008950096017308F00057
:100B1400F101F035F10DF035F10D0230700784006C
:100B24008830713D8500000892007308F000F101DF
:100B3400F035F10DF035F10D033070078400883085
:100B4400713D85000008F200F20DF20DF20D210056
:100B54000E087206F73972068E00240095160800F6
:100B6400220090018F018C018D018E010F30210034
:100B74009000FF308C00C7308D00B7308E00FF30FE
:100B84008F00FF3023008F00E4308E008D0107308A
:100B940090003F308C0024008F0190018D018C0166
:100BA4008E0121009517250090018C018D018E0185
:100BB4008F01FF3026008C00FF308D00FF308E0047
:100BC400FF308F0007309000FF3027008C00FF308B
:100BD4008D00FF308E00FF308F000F3090001430F6
:100BE4003C00A10010303D00A3003C00A8010630E9
:100BF4003D009D001430A60013303C00A000080006
:100C04002000A0010D080139F000F101F201700883
:100C1400A1007108A2007208A3000D0C0139F000B4
:100C2400F101F2017008A4007108A5007208A60081
:100C34000D0C890C0139F000F101F2017008A700D4
:100C44007108A8007208A9002708F0002808F1001C
:100C54002908F20021082407F3002208253DF400A6
:100C64002308263DF5007308F0077408F13D750864
:100C7400F23D7208710470040319412E422E442E71
:100C8400A001A00A23082204210403194A2E4B2E92
:100C9400532E0130F0007008C1070130F0007008D5
:100CA400C1052608250424040319592E5A2E622E40
:100CB4000130F0007008C0070330F0007008C00570
:100CC4002908280427040319682E692E712E01307F
:100CD400F0007008BF070130F0007008BF0520085D
:100CE400080084318E2486310030853163258631B5
:100CF4008331B42386314030FA007A08F0003F3063
:100D0400FB007B08F10041308331B323863183310A
:100D1400BA2386318331BE2386318331DE23863183
:100D24008431592486318331C22386310030200036
:100D3400B1000030B0000030AF000030AE00003031
:100D4400B5000030B4000030B3000030B200AB0195
:100D5400AC01F001F101FF30843144248631FF30CD
:100D6400FA007A08F000F10100308431442486311D
:100D7400F001FF30FA007A08F10000308431442495
:100D84008631FF30FA007A08F000F101FF30843137
:100D940044248631FF30FA007A08F000FF30FB006B
:100DA4007B08F1000030843144248631F001FF30A7
:100DB400FA007A08F100FF30843144248631FF3090
:100DC400FA007A08F000B430FB007B08F1006430CC
:100DD400843144248631FF30FA007A08F000FF3071
:100DE400FB007B08F100FF3084314424863101305C
:100DF4002000AB070030AC3D2C08803AFA0080306C
:100E04007A02031D072F08302B02031C0A2F0B2F15
:100E1400AB2E0030F3000030F2002730F100103028
:100E2400F00020003108F7003008F6002F08F50024
:100E34002E08F40085311925863173087204710473
:100E44007004031D262F272F342F20004008FA009A
:100E54007A08F0003F08FB007B08F1004108833169
:100E6400B22386310030F3000030F2002730F10065
:100E74001030F00020003108F7003008F6002F0889
:100E8400F5002E08F40085311925863173087204A3
:100E940071047004031D4F2F502F572F8431E82401
:100EA4008631FA007A082000BE0020003E080319AB
:100EB4005C2F5D2FD12F31083502031D6B2F3008B5
:100EC4003402031D6B2F2F083302031D6B2F2E08D2
:100ED400320203186E2F6F2F762F86310226863149
:100EE400FA007A082000AA002A0803197A2F7B2F17
:100EF400A12FAA014008FA007A08F0003F08FB007D
:100F04007B08F10041088331B5238631023020008B
:100F14002E07B20000302F3DB3000030303DB40046
:100F24000030313DB500031022008D1D0314031859
:100F34009C2F9F2F22008D15A12F22008D112000A0
:100F440041080319A62FA72FD12F3F080319AB2F50
:100F5400AC2FB62F84310D248631FA007A08200094
:100F6400AD0022000D16B82F22000D12200031080A
:100F7400F3003008F2002F08F1002E08F0004008BA
:100F8400FA007A08F4003F08FB007B08F5002D08FE
:100F9400FC007C08F6008431AA248631E82F31084D
:100FA400F3003008F2002F08F1002E08F00005309D
:100FB400FA007A08F4003F08FB007B08F5002D08CE
:100FC400FC007C08F6008431AA248631013020001C
:100FD400AE070030AF3D0030B03D0030B13DA92E2A
:100FE40080310228FD013230840000308500103049
:100FF4008331D823873120008631732E2334003483
:04100400013400347F
:020000040001F9
:04000E00E43FFF3F8D
:00000001FF
