:020000040000FA
:08000000803102288731F62F40
:100A5200080008000800080008001630210097006E
:100A6200080085315E2585310800863116268531DC
:100A720008008531B9258531080071082000B100D0
:100A82007008B000080071082000B5007008B400BA
:100A9200080071082000B3007008B2000800383066
:100AA20021009900980122009601080085315E25F7
:100AB20085312000B601B60A0800803021009E0070
:100AC2009F019B019C0101309D000800003085318F
:100AD200862585317108F5007008F4000230F5367C
:100AE200F40C890B702D74080800863116268531A6
:100AF20085315025853185312E25853185315E251B
:100B020085318531B92585310800F3007308F2007B
:100B1200F20DF20D21001D087206833972069D0046
:100B22001D1421009D149D18972D982D942D1C089D
:100B3200F1001B08F00008009F2DB82D7408F70083
:100B4200F8017808003A0319A72DB82D7708003A62
:100B520003199E2D013A03199E2D033A03199E2D66
:100B6200013A03199E2D063A0319B82DB82D080033
:100B7200083023009F0080309D0024309E000C30FE
:100B82009B009C010030F0000030F10085314425CB
:100B920085310030F0000030F10085314A25853181
:100BA2000030F0000030F10085313E258531FD0135
:100BB200080004308531862585317108F6007008F9
:100BC200F500200036080319E72DE82DFA2D023032
:100BD2007602003003197502031CF02DF12DF52D5C
:100BE200F40122008D15142EF401F40A22008D1155
:100BF200142E013076020A30031975020318022EF0
:100C0200032E0C2E00307602FF30031975020318F2
:100C12000B2E0C2E112EF401F40A22008D11142E2B
:100C2200F40122008D1574080800220090018F0142
:100C32008C018D018E010F3021009000FF308C005D
:100C4200E7308D00BF308E00FF308F00FF30230071
:100C52008F00FC308E0038308D00073090003F301E
:100C62008C0024008F0190018D018C018E012100E6
:100C72009517250090018C018D018E018F01FF30A7
:100C820026008C00FF308D00FF308E00FF308F0079
:100C920007309000FF3027008C00FF308D00FF30BE
:100CA2008E00FF308F000F30900014303D00A60000
:100CB200080073087204710470040319612E622E15
:100CC2009B2EF901F90A702E0130F035F10DF20D6B
:100CD200F30D890B662E0130F8007808F907F31F2F
:100CE200732E742E652E73087702031D822E7208EE
:100CF2007602031D822E71087502031D822E700872
:100D02007402031C852E862E8E2E7008F402710842
:100D1200F53B7208F63B7308F73B0130F336F20CF1
:100D2200F10CF00C890B8F2E0130F902031D9A2E63
:100D32009B2E742E7708F3007608F2007508F100F6
:100D42007408F00008002000A0010D080139F0002D
:100D5200F101F2017008A1007108A2007208A3005B
:100D62000D0C0139F000F101F2017008A4007108C4
:100D7200A5007208A6000D0C890C0139F000F101E2
:100D8200F2017008A7007108A8007208A9002708DC
:100D9200F0002808F1002908F20021082407F300D6
:100DA2002208253DF4002308263DF5007308F007CC
:100DB2007408F13D7508F23D72087104700403195C
:100DC200E32EE42EE62EA001A00A23082204210429
:100DD2000319EC2EED2EF22E0130F0007008BB0745
:100DE200BB012608250424040319F82EF92E012F2D
:100DF2000130F0007008BA070330F0007008BA053D
:100E02002908280427040319072F082F0D2F013062
:100E1200F0007008B907B90120080800853176256D
:100E2200873185312B2587313A30FA007A08F00074
:100E32003930FB007B08F1003B3085312A258731B0
:100E420085313225873185313625873185315725E0
:100E5200873185312D25873185313A25873100301B
:100E62002000AF000030AE000030AD000030AC001A
:100E72000030F3000030F2002730F1001030F000B3
:100E820020002F08F7002E08F6002D08F5002C0888
:100E9200F40086315A268731730872047104700493
:100EA200031D542F552F622F20003A08FA007A08AA
:100EB200F0003908FB007B08F1003B088531292549
:100EC20087310030F3000030F2002730F10010309B
:100ED200F00020002F08F7002E08F6002D08F5007C
:100EE2002C08F40086315A26873173087204710483
:100EF2007004031D7D2F7E2F852F8531DA258731E2
:100F0200FA007A082000B6002000360803198A2F5A
:100F12008B2FDC2F8631A4268731FA007A08200035
:100F2200AA002A080319962F972FA32F3A08FA002E
:100F32007A08F0003908FB007B08F1003B08853194
:100F42002C25873120003B080319A82FA92FDC2F5D
:100F520039080319AD2FAE2FB82F85316725873198
:100F6200FA007A082000AB0022000D16BA2F2200E8
:100F72000D1220002F08F3002E08F2002D08F100B8
:100F82002C08F0003A08FA007A08F4003908FB004D
:100F92007B08F5002B08FC007C08F60085319D25B6
:100FA200873101302000AC070030AD3D0030AE3D4E
:100FB2000030AF3D392F2F08F3002E08F2002D0824
:100FC200F1002C08F0000530FA007A08F400390824
:100FD200FB007B08F5002B08FC007C08F60085313D
:100FE2009D258731392F80310228FD012000B7016C
:0E0FF200B801B901BA01BB01200087310F2FF1
:020000040001F9
:04000E00E43FFF3E8E
:00000001FF
